{
	"data": {
		"bytecode": {
			"linkReferences": {},
			"object": "608060405234801561000f575f80fd5b5060405161366038038061366083398181016040528101906100319190610266565b806040518060400160405280601681526020017f426c6f636b4c6561726e204365727469666963617465000000000000000000008152506040518060400160405280600681526020017f424c434552540000000000000000000000000000000000000000000000000000815250815f90816100ac91906104cb565b5080600190816100bc91906104cb565b5050505f73ffffffffffffffffffffffffffffffffffffffff168173ffffffffffffffffffffffffffffffffffffffff160361012f575f6040517f1e4fbdf700000000000000000000000000000000000000000000000000000000815260040161012691906105a9565b60405180910390fd5b61013e8161014560201b60201c565b50506105c2565b5f600b5f9054906101000a900473ffffffffffffffffffffffffffffffffffffffff16905081600b5f6101000a81548173ffffffffffffffffffffffffffffffffffffffff021916908373ffffffffffffffffffffffffffffffffffffffff1602179055508173ffffffffffffffffffffffffffffffffffffffff168173ffffffffffffffffffffffffffffffffffffffff167f8be0079c531659141344cd1fd0a4f28419497f9722a3daafe3b4186f6b6457e060405160405180910390a35050565b5f80fd5b5f73ffffffffffffffffffffffffffffffffffffffff82169050919050565b5f6102358261020c565b9050919050565b6102458161022b565b811461024f575f80fd5b50565b5f815190506102608161023c565b92915050565b5f6020828403121561027b5761027a610208565b5b5f61028884828501610252565b91505092915050565b5f81519050919050565b7f4e487b71000000000000000000000000000000000000000000000000000000005f52604160045260245ffd5b7f4e487b71000000000000000000000000000000000000000000000000000000005f52602260045260245ffd5b5f600282049050600182168061030c57607f821691505b60208210810361031f5761031e6102c8565b5b50919050565b5f819050815f5260205f209050919050565b5f6020601f8301049050919050565b5f82821b905092915050565b5f600883026103817fffffffffffffffffffffffffffffffffffffffffffffffffffffffffffffffff82610346565b61038b8683610346565b95508019841693508086168417925050509392505050565b5f819050919050565b5f819050919050565b5f6103cf6103ca6103c5846103a3565b6103ac565b6103a3565b9050919050565b5f819050919050565b6103e8836103b5565b6103fc6103f4826103d6565b848454610352565b825550505050565b5f90565b610410610404565b61041b8184846103df565b505050565b5b8181101561043e576104335f82610408565b600181019050610421565b5050565b601f8211156104835761045481610325565b61045d84610337565b8101602085101561046c578190505b61048061047885610337565b830182610420565b50505b505050565b5f82821c905092915050565b5f6104a35f1984600802610488565b1980831691505092915050565b5f6104bb8383610494565b9150826002028217905092915050565b6104d482610291565b67ffffffffffffffff8111156104ed576104ec61029b565b5b6104f782546102f5565b610502828285610442565b5f60209050601f831160018114610533575f8415610521578287015190505b61052b85826104b0565b865550610592565b601f19841661054186610325565b5f5b8281101561056857848901518255600182019150602085019450602081019050610543565b868310156105855784890151610581601f891682610494565b8355505b6001600288020188555050505b505050505050565b6105a38161022b565b82525050565b5f6020820190506105bc5f83018461059a565b92915050565b613091806105cf5f395ff3fe608060405234801561000f575f80fd5b506004361061014b575f3560e01c80636352211e116100c1578063a22cb4651161007a578063a22cb465146103d9578063b856cebd146103f5578063b88d4fde14610425578063c87b56dd14610441578063e985e9c514610471578063f2fde38b146104a15761014b565b80636352211e146102ff578063663b3e221461032f57806370a0823114610363578063715018a6146103935780638da5cb5b1461039d57806395d89b41146103bb5761014b565b806323b872dd1161011357806323b872dd1461020757806327994aa4146102235780632f745c591461025357806342842e0e146102835780634f6ccce71461029f5780635b47ce64146102cf5761014b565b806301ffc9a71461014f57806306fdde031461017f578063081812fc1461019d578063095ea7b3146101cd57806318160ddd146101e9575b5f80fd5b610169600480360381019061016491906122e9565b6104bd565b604051610176919061232e565b60405180910390f35b6101876104ce565b60405161019491906123b7565b60405180910390f35b6101b760048036038101906101b2919061240a565b61055d565b6040516101c49190612474565b60405180910390f35b6101e760048036038101906101e291906124b7565b610578565b005b6101f161058e565b6040516101fe9190612504565b60405180910390f35b610221600480360381019061021c919061251d565b61059a565b005b61023d60048036038101906102389190612699565b610699565b60405161024a9190612504565b60405180910390f35b61026d600480360381019061026891906124b7565b6108df565b60405161027a9190612504565b60405180910390f35b61029d6004803603810190610298919061251d565b610983565b005b6102b960048036038101906102b4919061240a565b6109a2565b6040516102c69190612504565b60405180910390f35b6102e960048036038101906102e491906124b7565b610a14565b6040516102f6919061232e565b60405180910390f35b6103196004803603810190610314919061240a565b610a3e565b6040516103269190612474565b60405180910390f35b6103496004803603810190610344919061240a565b610a4f565b60405161035a959493929190612721565b60405180910390f35b61037d60048036038101906103789190612780565b610bac565b60405161038a9190612504565b60405180910390f35b61039b610c62565b005b6103a5610c75565b6040516103b29190612474565b60405180910390f35b6103c3610c9d565b6040516103d091906123b7565b60405180910390f35b6103f360048036038101906103ee91906127d5565b610d2d565b005b61040f600480360381019061040a9190612780565b610d43565b60405161041c91906128ca565b60405180910390f35b61043f600480360381019061043a9190612988565b610eec565b005b61045b6004803603810190610456919061240a565b610f11565b60405161046891906123b7565b60405180910390f35b61048b60048036038101906104869190612a08565b610f23565b604051610498919061232e565b60405180910390f35b6104bb60048036038101906104b69190612780565b610fb1565b005b5f6104c782611035565b9050919050565b60605f80546104dc90612a73565b80601f016020809104026020016040519081016040528092919081815260200182805461050890612a73565b80156105535780601f1061052a57610100808354040283529160200191610553565b820191905f5260205f20905b81548152906001019060200180831161053657829003601f168201915b5050505050905090565b5f61056782611095565b506105718261111b565b9050919050565b61058a8282610585611154565b61115b565b5050565b5f600880549050905090565b5f73ffffffffffffffffffffffffffffffffffffffff168273ffffffffffffffffffffffffffffffffffffffff160361060a575f6040517f64a0ae920000000000000000000000000000000000000000000000000000000081526004016106019190612474565b60405180910390fd5b5f61061d8383610618611154565b61116d565b90508373ffffffffffffffffffffffffffffffffffffffff168173ffffffffffffffffffffffffffffffffffffffff1614610693578382826040517f64283d7b00000000000000000000000000000000000000000000000000000000815260040161068a93929190612aa3565b60405180910390fd5b50505050565b5f600e5f3373ffffffffffffffffffffffffffffffffffffffff1673ffffffffffffffffffffffffffffffffffffffff1681526020019081526020015f205f8581526020019081526020015f205f9054906101000a900460ff1615610733576040517f08c379a000000000000000000000000000000000000000000000000000000000815260040161072a90612b22565b60405180910390fd5b61073d600c611182565b5f610748600c611196565b905061075433826111a2565b61075e81846111bf565b6040518060a001604052808681526020018581526020013373ffffffffffffffffffffffffffffffffffffffff16815260200142815260200184815250600d5f8381526020019081526020015f205f820151815f015560208201518160010190816107c99190612cdd565b506040820151816002015f6101000a81548173ffffffffffffffffffffffffffffffffffffffff021916908373ffffffffffffffffffffffffffffffffffffffff16021790555060608201518160030155608082015181600401908161082f9190612cdd565b509050506001600e5f3373ffffffffffffffffffffffffffffffffffffffff1673ffffffffffffffffffffffffffffffffffffffff1681526020019081526020015f205f8781526020019081526020015f205f6101000a81548160ff0219169083151502179055507fc634e044312eb7dc5719a0882979ef83fff07a9c7c0be5ed5d068b63a246729e813387876040516108cc9493929190612dac565b60405180910390a1809150509392505050565b5f6108e983610bac565b821061092e5782826040517fa57d13dc000000000000000000000000000000000000000000000000000000008152600401610925929190612df6565b60405180910390fd5b60065f8473ffffffffffffffffffffffffffffffffffffffff1673ffffffffffffffffffffffffffffffffffffffff1681526020019081526020015f205f8381526020019081526020015f2054905092915050565b61099d83838360405180602001604052805f815250610eec565b505050565b5f6109ab61058e565b82106109f0575f826040517fa57d13dc0000000000000000000000000000000000000000000000000000000081526004016109e7929190612df6565b60405180910390fd5b60088281548110610a0457610a03612e1d565b5b905f5260205f2001549050919050565b600e602052815f5260405f20602052805f5260405f205f915091509054906101000a900460ff1681565b5f610a4882611095565b9050919050565b600d602052805f5260405f205f91509050805f015490806001018054610a7490612a73565b80601f0160208091040260200160405190810160405280929190818152602001828054610aa090612a73565b8015610aeb5780601f10610ac257610100808354040283529160200191610aeb565b820191905f5260205f20905b815481529060010190602001808311610ace57829003601f168201915b505050505090806002015f9054906101000a900473ffffffffffffffffffffffffffffffffffffffff1690806003015490806004018054610b2b90612a73565b80601f0160208091040260200160405190810160405280929190818152602001828054610b5790612a73565b8015610ba25780601f10610b7957610100808354040283529160200191610ba2565b820191905f5260205f20905b815481529060010190602001808311610b8557829003601f168201915b5050505050905085565b5f8073ffffffffffffffffffffffffffffffffffffffff168273ffffffffffffffffffffffffffffffffffffffff1603610c1d575f6040517f89c62b64000000000000000000000000000000000000000000000000000000008152600401610c149190612474565b60405180910390fd5b60035f8373ffffffffffffffffffffffffffffffffffffffff1673ffffffffffffffffffffffffffffffffffffffff1681526020019081526020015f20549050919050565b610c6a611219565b610c735f6112a0565b565b5f600b5f9054906101000a900473ffffffffffffffffffffffffffffffffffffffff16905090565b606060018054610cac90612a73565b80601f0160208091040260200160405190810160405280929190818152602001828054610cd890612a73565b8015610d235780601f10610cfa57610100808354040283529160200191610d23565b820191905f5260205f20905b815481529060010190602001808311610d0657829003601f168201915b5050505050905090565b610d3f610d38611154565b8383611363565b5050565b60605f80600190505b610d56600c611196565b8111610ddc57600e5f8573ffffffffffffffffffffffffffffffffffffffff1673ffffffffffffffffffffffffffffffffffffffff1681526020019081526020015f205f8281526020019081526020015f205f9054906101000a900460ff1615610dc9578180610dc590612e77565b9250505b8080610dd490612e77565b915050610d4c565b505f8167ffffffffffffffff811115610df857610df7612575565b5b604051908082528060200260200182016040528015610e265781602001602082028036833780820191505090505b5090505f80600190505b610e3a600c611196565b8111610ee057600e5f8773ffffffffffffffffffffffffffffffffffffffff1673ffffffffffffffffffffffffffffffffffffffff1681526020019081526020015f205f8281526020019081526020015f205f9054906101000a900460ff1615610ecd5780838381518110610eb257610eb1612e1d565b5b6020026020010181815250508180610ec990612e77565b9250505b8080610ed890612e77565b915050610e30565b50819350505050919050565b610ef784848461059a565b610f0b610f02611154565b858585856114cc565b50505050565b6060610f1c82611678565b9050919050565b5f60055f8473ffffffffffffffffffffffffffffffffffffffff1673ffffffffffffffffffffffffffffffffffffffff1681526020019081526020015f205f8373ffffffffffffffffffffffffffffffffffffffff1673ffffffffffffffffffffffffffffffffffffffff1681526020019081526020015f205f9054906101000a900460ff16905092915050565b610fb9611219565b5f73ffffffffffffffffffffffffffffffffffffffff168173ffffffffffffffffffffffffffffffffffffffff1603611029575f6040517f1e4fbdf70000000000000000000000000000000000000000000000000000000081526004016110209190612474565b60405180910390fd5b611032816112a0565b50565b5f634906490660e01b7bffffffffffffffffffffffffffffffffffffffffffffffffffffffff1916827bffffffffffffffffffffffffffffffffffffffffffffffffffffffff1916148061108e575061108d82611783565b5b9050919050565b5f806110a0836117fc565b90505f73ffffffffffffffffffffffffffffffffffffffff168173ffffffffffffffffffffffffffffffffffffffff160361111257826040517f7e2732890000000000000000000000000000000000000000000000000000000081526004016111099190612504565b60405180910390fd5b80915050919050565b5f60045f8381526020019081526020015f205f9054906101000a900473ffffffffffffffffffffffffffffffffffffffff169050919050565b5f33905090565b6111688383836001611835565b505050565b5f6111798484846119f4565b90509392505050565b6001815f015f828254019250508190555050565b5f815f01549050919050565b6111bb828260405180602001604052805f815250611bff565b5050565b80600a5f8481526020019081526020015f2090816111dd9190612cdd565b507ff8e1a15aba9398e019f0b49df1a4fde98ee17ae345cb5f6b5e2c27f5033e8ce78260405161120d9190612504565b60405180910390a15050565b611221611154565b73ffffffffffffffffffffffffffffffffffffffff1661123f610c75565b73ffffffffffffffffffffffffffffffffffffffff161461129e57611262611154565b6040517f118cdaa70000000000000000000000000000000000000000000000000000000081526004016112959190612474565b60405180910390fd5b565b5f600b5f9054906101000a900473ffffffffffffffffffffffffffffffffffffffff16905081600b5f6101000a81548173ffffffffffffffffffffffffffffffffffffffff021916908373ffffffffffffffffffffffffffffffffffffffff1602179055508173ffffffffffffffffffffffffffffffffffffffff168173ffffffffffffffffffffffffffffffffffffffff167f8be0079c531659141344cd1fd0a4f28419497f9722a3daafe3b4186f6b6457e060405160405180910390a35050565b5f73ffffffffffffffffffffffffffffffffffffffff168273ffffffffffffffffffffffffffffffffffffffff16036113d357816040517f5b08ba180000000000000000000000000000000000000000000000000000000081526004016113ca9190612474565b60405180910390fd5b8060055f8573ffffffffffffffffffffffffffffffffffffffff1673ffffffffffffffffffffffffffffffffffffffff1681526020019081526020015f205f8473ffffffffffffffffffffffffffffffffffffffff1673ffffffffffffffffffffffffffffffffffffffff1681526020019081526020015f205f6101000a81548160ff0219169083151502179055508173ffffffffffffffffffffffffffffffffffffffff168373ffffffffffffffffffffffffffffffffffffffff167f17307eab39ab6107e8899845ad3d59bd9653f200f220920489ca2b5937696c31836040516114bf919061232e565b60405180910390a3505050565b5f8373ffffffffffffffffffffffffffffffffffffffff163b1115611671578273ffffffffffffffffffffffffffffffffffffffff1663150b7a02868685856040518563ffffffff1660e01b815260040161152a9493929190612f10565b6020604051808303815f875af192505050801561156557506040513d601f19601f820116820180604052508101906115629190612f6e565b60015b6115e6573d805f8114611593576040519150601f19603f3d011682016040523d82523d5f602084013e611598565b606091505b505f8151036115de57836040517f64a0ae920000000000000000000000000000000000000000000000000000000081526004016115d59190612474565b60405180910390fd5b805181602001fd5b63150b7a0260e01b7bffffffffffffffffffffffffffffffffffffffffffffffffffffffff1916817bffffffffffffffffffffffffffffffffffffffffffffffffffffffff19161461166f57836040517f64a0ae920000000000000000000000000000000000000000000000000000000081526004016116669190612474565b60405180910390fd5b505b5050505050565b606061168382611095565b505f600a5f8481526020019081526020015f2080546116a190612a73565b80601f01602080910402602001604051908101604052809291908181526020018280546116cd90612a73565b80156117185780601f106116ef57610100808354040283529160200191611718565b820191905f5260205f20905b8154815290600101906020018083116116fb57829003601f168201915b505050505090505f611728611c22565b90505f81510361173c57819250505061177e565b5f82511115611770578082604051602001611758929190612fd3565b6040516020818303038152906040529250505061177e565b61177984611c42565b925050505b919050565b5f7f780e9d63000000000000000000000000000000000000000000000000000000007bffffffffffffffffffffffffffffffffffffffffffffffffffffffff1916827bffffffffffffffffffffffffffffffffffffffffffffffffffffffff191614806117f557506117f482611ca8565b5b9050919050565b5f60025f8381526020019081526020015f205f9054906101000a900473ffffffffffffffffffffffffffffffffffffffff169050919050565b808061186d57505f73ffffffffffffffffffffffffffffffffffffffff168273ffffffffffffffffffffffffffffffffffffffff1614155b1561199f575f61187c84611095565b90505f73ffffffffffffffffffffffffffffffffffffffff168373ffffffffffffffffffffffffffffffffffffffff16141580156118e657508273ffffffffffffffffffffffffffffffffffffffff168173ffffffffffffffffffffffffffffffffffffffff1614155b80156118f957506118f78184610f23565b155b1561193b57826040517fa9fbf51f0000000000000000000000000000000000000000000000000000000081526004016119329190612474565b60405180910390fd5b811561199d57838573ffffffffffffffffffffffffffffffffffffffff168273ffffffffffffffffffffffffffffffffffffffff167f8c5be1e5ebec7d5bd14f71427d1e84f3dd0314c0f7b2291e5b200ac8c7c3b92560405160405180910390a45b505b8360045f8581526020019081526020015f205f6101000a81548173ffffffffffffffffffffffffffffffffffffffff021916908373ffffffffffffffffffffffffffffffffffffffff16021790555050505050565b5f806119ff846117fc565b90505f73ffffffffffffffffffffffffffffffffffffffff168373ffffffffffffffffffffffffffffffffffffffff1614611a4057611a3f818486611d89565b5b5f73ffffffffffffffffffffffffffffffffffffffff168173ffffffffffffffffffffffffffffffffffffffff1614611acb57611a7f5f855f80611835565b600160035f8373ffffffffffffffffffffffffffffffffffffffff1673ffffffffffffffffffffffffffffffffffffffff1681526020019081526020015f205f82825403925050819055505b5f73ffffffffffffffffffffffffffffffffffffffff168573ffffffffffffffffffffffffffffffffffffffff1614611b4a57600160035f8773ffffffffffffffffffffffffffffffffffffffff1673ffffffffffffffffffffffffffffffffffffffff1681526020019081526020015f205f82825401925050819055505b8460025f8681526020019081526020015f205f6101000a81548173ffffffffffffffffffffffffffffffffffffffff021916908373ffffffffffffffffffffffffffffffffffffffff160217905550838573ffffffffffffffffffffffffffffffffffffffff168273ffffffffffffffffffffffffffffffffffffffff167fddf252ad1be2c89b69c2b068fc378daa952ba7f163c4a11628f55a4df523b3ef60405160405180910390a4809150509392505050565b611c098383611e4c565b611c1d611c14611154565b5f8585856114cc565b505050565b606060405180606001604052806038815260200161302460389139905090565b6060611c4d82611095565b505f611c57611c22565b90505f815111611c755760405180602001604052805f815250611ca0565b80611c7f84611f3f565b604051602001611c90929190612fd3565b6040516020818303038152906040525b915050919050565b5f7f80ac58cd000000000000000000000000000000000000000000000000000000007bffffffffffffffffffffffffffffffffffffffffffffffffffffffff1916827bffffffffffffffffffffffffffffffffffffffffffffffffffffffff19161480611d7257507f5b5e139f000000000000000000000000000000000000000000000000000000007bffffffffffffffffffffffffffffffffffffffffffffffffffffffff1916827bffffffffffffffffffffffffffffffffffffffffffffffffffffffff1916145b80611d825750611d8182612009565b5b9050919050565b611d94838383612072565b611e47575f73ffffffffffffffffffffffffffffffffffffffff168373ffffffffffffffffffffffffffffffffffffffff1603611e0857806040517f7e273289000000000000000000000000000000000000000000000000000000008152600401611dff9190612504565b60405180910390fd5b81816040517f177e802f000000000000000000000000000000000000000000000000000000008152600401611e3e929190612df6565b60405180910390fd5b505050565b5f73ffffffffffffffffffffffffffffffffffffffff168273ffffffffffffffffffffffffffffffffffffffff1603611ebc575f6040517f64a0ae92000000000000000000000000000000000000000000000000000000008152600401611eb39190612474565b60405180910390fd5b5f611ec883835f61116d565b90505f73ffffffffffffffffffffffffffffffffffffffff168173ffffffffffffffffffffffffffffffffffffffff1614611f3a575f6040517f73c6ac6e000000000000000000000000000000000000000000000000000000008152600401611f319190612474565b60405180910390fd5b505050565b60605f6001611f4d84612132565b0190505f8167ffffffffffffffff811115611f6b57611f6a612575565b5b6040519080825280601f01601f191660200182016040528015611f9d5781602001600182028036833780820191505090505b5090505f82602001820190505b600115611ffe578080600190039150507f3031323334353637383961626364656600000000000000000000000000000000600a86061a8153600a8581611ff357611ff2612ff6565b5b0494505f8503611faa575b819350505050919050565b5f7f01ffc9a7000000000000000000000000000000000000000000000000000000007bffffffffffffffffffffffffffffffffffffffffffffffffffffffff1916827bffffffffffffffffffffffffffffffffffffffffffffffffffffffff1916149050919050565b5f8073ffffffffffffffffffffffffffffffffffffffff168373ffffffffffffffffffffffffffffffffffffffff161415801561212957508273ffffffffffffffffffffffffffffffffffffffff168473ffffffffffffffffffffffffffffffffffffffff1614806120ea57506120e98484610f23565b5b8061212857508273ffffffffffffffffffffffffffffffffffffffff166121108361111b565b73ffffffffffffffffffffffffffffffffffffffff16145b5b90509392505050565b5f805f90507a184f03e93ff9f4daa797ed6e38ed64bf6a1f010000000000000000831061218e577a184f03e93ff9f4daa797ed6e38ed64bf6a1f010000000000000000838161218457612183612ff6565b5b0492506040810190505b6d04ee2d6d415b85acef810000000083106121cb576d04ee2d6d415b85acef810000000083816121c1576121c0612ff6565b5b0492506020810190505b662386f26fc1000083106121fa57662386f26fc1000083816121f0576121ef612ff6565b5b0492506010810190505b6305f5e1008310612223576305f5e100838161221957612218612ff6565b5b0492506008810190505b612710831061224857612710838161223e5761223d612ff6565b5b0492506004810190505b6064831061226b576064838161226157612260612ff6565b5b0492506002810190505b600a831061227a576001810190505b80915050919050565b5f604051905090565b5f80fd5b5f80fd5b5f7fffffffff0000000000000000000000000000000000000000000000000000000082169050919050565b6122c881612294565b81146122d2575f80fd5b50565b5f813590506122e3816122bf565b92915050565b5f602082840312156122fe576122fd61228c565b5b5f61230b848285016122d5565b91505092915050565b5f8115159050919050565b61232881612314565b82525050565b5f6020820190506123415f83018461231f565b92915050565b5f81519050919050565b5f82825260208201905092915050565b8281835e5f83830152505050565b5f601f19601f8301169050919050565b5f61238982612347565b6123938185612351565b93506123a3818560208601612361565b6123ac8161236f565b840191505092915050565b5f6020820190508181035f8301526123cf818461237f565b905092915050565b5f819050919050565b6123e9816123d7565b81146123f3575f80fd5b50565b5f81359050612404816123e0565b92915050565b5f6020828403121561241f5761241e61228c565b5b5f61242c848285016123f6565b91505092915050565b5f73ffffffffffffffffffffffffffffffffffffffff82169050919050565b5f61245e82612435565b9050919050565b61246e81612454565b82525050565b5f6020820190506124875f830184612465565b92915050565b61249681612454565b81146124a0575f80fd5b50565b5f813590506124b18161248d565b92915050565b5f80604083850312156124cd576124cc61228c565b5b5f6124da858286016124a3565b92505060206124eb858286016123f6565b9150509250929050565b6124fe816123d7565b82525050565b5f6020820190506125175f8301846124f5565b92915050565b5f805f606084860312156125345761253361228c565b5b5f612541868287016124a3565b9350506020612552868287016124a3565b9250506040612563868287016123f6565b9150509250925092565b5f80fd5b5f80fd5b7f4e487b71000000000000000000000000000000000000000000000000000000005f52604160045260245ffd5b6125ab8261236f565b810181811067ffffffffffffffff821117156125ca576125c9612575565b5b80604052505050565b5f6125dc612283565b90506125e882826125a2565b919050565b5f67ffffffffffffffff82111561260757612606612575565b5b6126108261236f565b9050602081019050919050565b828183375f83830152505050565b5f61263d612638846125ed565b6125d3565b90508281526020810184848401111561265957612658612571565b5b61266484828561261d565b509392505050565b5f82601f8301126126805761267f61256d565b5b813561269084826020860161262b565b91505092915050565b5f805f606084860312156126b0576126af61228c565b5b5f6126bd868287016123f6565b935050602084013567ffffffffffffffff8111156126de576126dd612290565b5b6126ea8682870161266c565b925050604084013567ffffffffffffffff81111561270b5761270a612290565b5b6127178682870161266c565b9150509250925092565b5f60a0820190506127345f8301886124f5565b8181036020830152612746818761237f565b90506127556040830186612465565b61276260608301856124f5565b8181036080830152612774818461237f565b90509695505050505050565b5f602082840312156127955761279461228c565b5b5f6127a2848285016124a3565b91505092915050565b6127b481612314565b81146127be575f80fd5b50565b5f813590506127cf816127ab565b92915050565b5f80604083850312156127eb576127ea61228c565b5b5f6127f8858286016124a3565b9250506020612809858286016127c1565b9150509250929050565b5f81519050919050565b5f82825260208201905092915050565b5f819050602082019050919050565b612845816123d7565b82525050565b5f612856838361283c565b60208301905092915050565b5f602082019050919050565b5f61287882612813565b612882818561281d565b935061288d8361282d565b805f5b838110156128bd5781516128a4888261284b565b97506128af83612862565b925050600181019050612890565b5085935050505092915050565b5f6020820190508181035f8301526128e2818461286e565b905092915050565b5f67ffffffffffffffff82111561290457612903612575565b5b61290d8261236f565b9050602081019050919050565b5f61292c612927846128ea565b6125d3565b90508281526020810184848401111561294857612947612571565b5b61295384828561261d565b509392505050565b5f82601f83011261296f5761296e61256d565b5b813561297f84826020860161291a565b91505092915050565b5f805f80608085870312156129a05761299f61228c565b5b5f6129ad878288016124a3565b94505060206129be878288016124a3565b93505060406129cf878288016123f6565b925050606085013567ffffffffffffffff8111156129f0576129ef612290565b5b6129fc8782880161295b565b91505092959194509250565b5f8060408385031215612a1e57612a1d61228c565b5b5f612a2b858286016124a3565b9250506020612a3c858286016124a3565b9150509250929050565b7f4e487b71000000000000000000000000000000000000000000000000000000005f52602260045260245ffd5b5f6002820490506001821680612a8a57607f821691505b602082108103612a9d57612a9c612a46565b5b50919050565b5f606082019050612ab65f830186612465565b612ac360208301856124f5565b612ad06040830184612465565b949350505050565b7f436572746966696361746520616c7265616479206973737565640000000000005f82015250565b5f612b0c601a83612351565b9150612b1782612ad8565b602082019050919050565b5f6020820190508181035f830152612b3981612b00565b9050919050565b5f819050815f5260205f209050919050565b5f6020601f8301049050919050565b5f82821b905092915050565b5f60088302612b9c7fffffffffffffffffffffffffffffffffffffffffffffffffffffffffffffffff82612b61565b612ba68683612b61565b95508019841693508086168417925050509392505050565b5f819050919050565b5f612be1612bdc612bd7846123d7565b612bbe565b6123d7565b9050919050565b5f819050919050565b612bfa83612bc7565b612c0e612c0682612be8565b848454612b6d565b825550505050565b5f90565b612c22612c16565b612c2d818484612bf1565b505050565b5b81811015612c5057612c455f82612c1a565b600181019050612c33565b5050565b601f821115612c9557612c6681612b40565b612c6f84612b52565b81016020851015612c7e578190505b612c92612c8a85612b52565b830182612c32565b50505b505050565b5f82821c905092915050565b5f612cb55f1984600802612c9a565b1980831691505092915050565b5f612ccd8383612ca6565b9150826002028217905092915050565b612ce682612347565b67ffffffffffffffff811115612cff57612cfe612575565b5b612d098254612a73565b612d14828285612c54565b5f60209050601f831160018114612d45575f8415612d33578287015190505b612d3d8582612cc2565b865550612da4565b601f198416612d5386612b40565b5f5b82811015612d7a57848901518255600182019150602085019450602081019050612d55565b86831015612d975784890151612d93601f891682612ca6565b8355505b6001600288020188555050505b505050505050565b5f608082019050612dbf5f8301876124f5565b612dcc6020830186612465565b612dd960408301856124f5565b8181036060830152612deb818461237f565b905095945050505050565b5f604082019050612e095f830185612465565b612e1660208301846124f5565b9392505050565b7f4e487b71000000000000000000000000000000000000000000000000000000005f52603260045260245ffd5b7f4e487b71000000000000000000000000000000000000000000000000000000005f52601160045260245ffd5b5f612e81826123d7565b91507fffffffffffffffffffffffffffffffffffffffffffffffffffffffffffffffff8203612eb357612eb2612e4a565b5b600182019050919050565b5f81519050919050565b5f82825260208201905092915050565b5f612ee282612ebe565b612eec8185612ec8565b9350612efc818560208601612361565b612f058161236f565b840191505092915050565b5f608082019050612f235f830187612465565b612f306020830186612465565b612f3d60408301856124f5565b8181036060830152612f4f8184612ed8565b905095945050505050565b5f81519050612f68816122bf565b92915050565b5f60208284031215612f8357612f8261228c565b5b5f612f9084828501612f5a565b91505092915050565b5f81905092915050565b5f612fad82612347565b612fb78185612f99565b9350612fc7818560208601612361565b80840191505092915050565b5f612fde8285612fa3565b9150612fea8284612fa3565b91508190509392505050565b7f4e487b71000000000000000000000000000000000000000000000000000000005f52601260045260245ffdfe68747470733a2f2f77686974652d706563756c6961722d686f6f6b776f726d2d3530372e6d7970696e6174612e636c6f75642f697066732fa2646970667358221220f1e8b7c49742bd688ac0857061d3cad692bb96419841ba4d6e1892d852757e3f64736f6c634300081a0033",
			"opcodes": "PUSH1 0x80 PUSH1 0x40 MSTORE CALLVALUE DUP1 ISZERO PUSH2 0xF JUMPI PUSH0 DUP1 REVERT JUMPDEST POP PUSH1 0x40 MLOAD PUSH2 0x3660 CODESIZE SUB DUP1 PUSH2 0x3660 DUP4 CODECOPY DUP2 DUP2 ADD PUSH1 0x40 MSTORE DUP2 ADD SWAP1 PUSH2 0x31 SWAP2 SWAP1 PUSH2 0x266 JUMP JUMPDEST DUP1 PUSH1 0x40 MLOAD DUP1 PUSH1 0x40 ADD PUSH1 0x40 MSTORE DUP1 PUSH1 0x16 DUP2 MSTORE PUSH1 0x20 ADD PUSH32 0x426C6F636B4C6561726E20436572746966696361746500000000000000000000 DUP2 MSTORE POP PUSH1 0x40 MLOAD DUP1 PUSH1 0x40 ADD PUSH1 0x40 MSTORE DUP1 PUSH1 0x6 DUP2 MSTORE PUSH1 0x20 ADD PUSH32 0x424C434552540000000000000000000000000000000000000000000000000000 DUP2 MSTORE POP DUP2 PUSH0 SWAP1 DUP2 PUSH2 0xAC SWAP2 SWAP1 PUSH2 0x4CB JUMP JUMPDEST POP DUP1 PUSH1 0x1 SWAP1 DUP2 PUSH2 0xBC SWAP2 SWAP1 PUSH2 0x4CB JUMP JUMPDEST POP POP POP PUSH0 PUSH20 0xFFFFFFFFFFFFFFFFFFFFFFFFFFFFFFFFFFFFFFFF AND DUP2 PUSH20 0xFFFFFFFFFFFFFFFFFFFFFFFFFFFFFFFFFFFFFFFF AND SUB PUSH2 0x12F JUMPI PUSH0 PUSH1 0x40 MLOAD PUSH32 0x1E4FBDF700000000000000000000000000000000000000000000000000000000 DUP2 MSTORE PUSH1 0x4 ADD PUSH2 0x126 SWAP2 SWAP1 PUSH2 0x5A9 JUMP JUMPDEST PUSH1 0x40 MLOAD DUP1 SWAP2 SUB SWAP1 REVERT JUMPDEST PUSH2 0x13E DUP2 PUSH2 0x145 PUSH1 0x20 SHL PUSH1 0x20 SHR JUMP JUMPDEST POP POP PUSH2 0x5C2 JUMP JUMPDEST PUSH0 PUSH1 0xB PUSH0 SWAP1 SLOAD SWAP1 PUSH2 0x100 EXP SWAP1 DIV PUSH20 0xFFFFFFFFFFFFFFFFFFFFFFFFFFFFFFFFFFFFFFFF AND SWAP1 POP DUP2 PUSH1 0xB PUSH0 PUSH2 0x100 EXP DUP2 SLOAD DUP2 PUSH20 0xFFFFFFFFFFFFFFFFFFFFFFFFFFFFFFFFFFFFFFFF MUL NOT AND SWAP1 DUP4 PUSH20 0xFFFFFFFFFFFFFFFFFFFFFFFFFFFFFFFFFFFFFFFF AND MUL OR SWAP1 SSTORE POP DUP2 PUSH20 0xFFFFFFFFFFFFFFFFFFFFFFFFFFFFFFFFFFFFFFFF AND DUP2 PUSH20 0xFFFFFFFFFFFFFFFFFFFFFFFFFFFFFFFFFFFFFFFF AND PUSH32 0x8BE0079C531659141344CD1FD0A4F28419497F9722A3DAAFE3B4186F6B6457E0 PUSH1 0x40 MLOAD PUSH1 0x40 MLOAD DUP1 SWAP2 SUB SWAP1 LOG3 POP POP JUMP JUMPDEST PUSH0 DUP1 REVERT JUMPDEST PUSH0 PUSH20 0xFFFFFFFFFFFFFFFFFFFFFFFFFFFFFFFFFFFFFFFF DUP3 AND SWAP1 POP SWAP2 SWAP1 POP JUMP JUMPDEST PUSH0 PUSH2 0x235 DUP3 PUSH2 0x20C JUMP JUMPDEST SWAP1 POP SWAP2 SWAP1 POP JUMP JUMPDEST PUSH2 0x245 DUP2 PUSH2 0x22B JUMP JUMPDEST DUP2 EQ PUSH2 0x24F JUMPI PUSH0 DUP1 REVERT JUMPDEST POP JUMP JUMPDEST PUSH0 DUP2 MLOAD SWAP1 POP PUSH2 0x260 DUP2 PUSH2 0x23C JUMP JUMPDEST SWAP3 SWAP2 POP POP JUMP JUMPDEST PUSH0 PUSH1 0x20 DUP3 DUP5 SUB SLT ISZERO PUSH2 0x27B JUMPI PUSH2 0x27A PUSH2 0x208 JUMP JUMPDEST JUMPDEST PUSH0 PUSH2 0x288 DUP5 DUP3 DUP6 ADD PUSH2 0x252 JUMP JUMPDEST SWAP2 POP POP SWAP3 SWAP2 POP POP JUMP JUMPDEST PUSH0 DUP2 MLOAD SWAP1 POP SWAP2 SWAP1 POP JUMP JUMPDEST PUSH32 0x4E487B7100000000000000000000000000000000000000000000000000000000 PUSH0 MSTORE PUSH1 0x41 PUSH1 0x4 MSTORE PUSH1 0x24 PUSH0 REVERT JUMPDEST PUSH32 0x4E487B7100000000000000000000000000000000000000000000000000000000 PUSH0 MSTORE PUSH1 0x22 PUSH1 0x4 MSTORE PUSH1 0x24 PUSH0 REVERT JUMPDEST PUSH0 PUSH1 0x2 DUP3 DIV SWAP1 POP PUSH1 0x1 DUP3 AND DUP1 PUSH2 0x30C JUMPI PUSH1 0x7F DUP3 AND SWAP2 POP JUMPDEST PUSH1 0x20 DUP3 LT DUP2 SUB PUSH2 0x31F JUMPI PUSH2 0x31E PUSH2 0x2C8 JUMP JUMPDEST JUMPDEST POP SWAP2 SWAP1 POP JUMP JUMPDEST PUSH0 DUP2 SWAP1 POP DUP2 PUSH0 MSTORE PUSH1 0x20 PUSH0 KECCAK256 SWAP1 POP SWAP2 SWAP1 POP JUMP JUMPDEST PUSH0 PUSH1 0x20 PUSH1 0x1F DUP4 ADD DIV SWAP1 POP SWAP2 SWAP1 POP JUMP JUMPDEST PUSH0 DUP3 DUP3 SHL SWAP1 POP SWAP3 SWAP2 POP POP JUMP JUMPDEST PUSH0 PUSH1 0x8 DUP4 MUL PUSH2 0x381 PUSH32 0xFFFFFFFFFFFFFFFFFFFFFFFFFFFFFFFFFFFFFFFFFFFFFFFFFFFFFFFFFFFFFFFF DUP3 PUSH2 0x346 JUMP JUMPDEST PUSH2 0x38B DUP7 DUP4 PUSH2 0x346 JUMP JUMPDEST SWAP6 POP DUP1 NOT DUP5 AND SWAP4 POP DUP1 DUP7 AND DUP5 OR SWAP3 POP POP POP SWAP4 SWAP3 POP POP POP JUMP JUMPDEST PUSH0 DUP2 SWAP1 POP SWAP2 SWAP1 POP JUMP JUMPDEST PUSH0 DUP2 SWAP1 POP SWAP2 SWAP1 POP JUMP JUMPDEST PUSH0 PUSH2 0x3CF PUSH2 0x3CA PUSH2 0x3C5 DUP5 PUSH2 0x3A3 JUMP JUMPDEST PUSH2 0x3AC JUMP JUMPDEST PUSH2 0x3A3 JUMP JUMPDEST SWAP1 POP SWAP2 SWAP1 POP JUMP JUMPDEST PUSH0 DUP2 SWAP1 POP SWAP2 SWAP1 POP JUMP JUMPDEST PUSH2 0x3E8 DUP4 PUSH2 0x3B5 JUMP JUMPDEST PUSH2 0x3FC PUSH2 0x3F4 DUP3 PUSH2 0x3D6 JUMP JUMPDEST DUP5 DUP5 SLOAD PUSH2 0x352 JUMP JUMPDEST DUP3 SSTORE POP POP POP POP JUMP JUMPDEST PUSH0 SWAP1 JUMP JUMPDEST PUSH2 0x410 PUSH2 0x404 JUMP JUMPDEST PUSH2 0x41B DUP2 DUP5 DUP5 PUSH2 0x3DF JUMP JUMPDEST POP POP POP JUMP JUMPDEST JUMPDEST DUP2 DUP2 LT ISZERO PUSH2 0x43E JUMPI PUSH2 0x433 PUSH0 DUP3 PUSH2 0x408 JUMP JUMPDEST PUSH1 0x1 DUP2 ADD SWAP1 POP PUSH2 0x421 JUMP JUMPDEST POP POP JUMP JUMPDEST PUSH1 0x1F DUP3 GT ISZERO PUSH2 0x483 JUMPI PUSH2 0x454 DUP2 PUSH2 0x325 JUMP JUMPDEST PUSH2 0x45D DUP5 PUSH2 0x337 JUMP JUMPDEST DUP2 ADD PUSH1 0x20 DUP6 LT ISZERO PUSH2 0x46C JUMPI DUP2 SWAP1 POP JUMPDEST PUSH2 0x480 PUSH2 0x478 DUP6 PUSH2 0x337 JUMP JUMPDEST DUP4 ADD DUP3 PUSH2 0x420 JUMP JUMPDEST POP POP JUMPDEST POP POP POP JUMP JUMPDEST PUSH0 DUP3 DUP3 SHR SWAP1 POP SWAP3 SWAP2 POP POP JUMP JUMPDEST PUSH0 PUSH2 0x4A3 PUSH0 NOT DUP5 PUSH1 0x8 MUL PUSH2 0x488 JUMP JUMPDEST NOT DUP1 DUP4 AND SWAP2 POP POP SWAP3 SWAP2 POP POP JUMP JUMPDEST PUSH0 PUSH2 0x4BB DUP4 DUP4 PUSH2 0x494 JUMP JUMPDEST SWAP2 POP DUP3 PUSH1 0x2 MUL DUP3 OR SWAP1 POP SWAP3 SWAP2 POP POP JUMP JUMPDEST PUSH2 0x4D4 DUP3 PUSH2 0x291 JUMP JUMPDEST PUSH8 0xFFFFFFFFFFFFFFFF DUP2 GT ISZERO PUSH2 0x4ED JUMPI PUSH2 0x4EC PUSH2 0x29B JUMP JUMPDEST JUMPDEST PUSH2 0x4F7 DUP3 SLOAD PUSH2 0x2F5 JUMP JUMPDEST PUSH2 0x502 DUP3 DUP3 DUP6 PUSH2 0x442 JUMP JUMPDEST PUSH0 PUSH1 0x20 SWAP1 POP PUSH1 0x1F DUP4 GT PUSH1 0x1 DUP2 EQ PUSH2 0x533 JUMPI PUSH0 DUP5 ISZERO PUSH2 0x521 JUMPI DUP3 DUP8 ADD MLOAD SWAP1 POP JUMPDEST PUSH2 0x52B DUP6 DUP3 PUSH2 0x4B0 JUMP JUMPDEST DUP7 SSTORE POP PUSH2 0x592 JUMP JUMPDEST PUSH1 0x1F NOT DUP5 AND PUSH2 0x541 DUP7 PUSH2 0x325 JUMP JUMPDEST PUSH0 JUMPDEST DUP3 DUP2 LT ISZERO PUSH2 0x568 JUMPI DUP5 DUP10 ADD MLOAD DUP3 SSTORE PUSH1 0x1 DUP3 ADD SWAP2 POP PUSH1 0x20 DUP6 ADD SWAP5 POP PUSH1 0x20 DUP2 ADD SWAP1 POP PUSH2 0x543 JUMP JUMPDEST DUP7 DUP4 LT ISZERO PUSH2 0x585 JUMPI DUP5 DUP10 ADD MLOAD PUSH2 0x581 PUSH1 0x1F DUP10 AND DUP3 PUSH2 0x494 JUMP JUMPDEST DUP4 SSTORE POP JUMPDEST PUSH1 0x1 PUSH1 0x2 DUP9 MUL ADD DUP9 SSTORE POP POP POP JUMPDEST POP POP POP POP POP POP JUMP JUMPDEST PUSH2 0x5A3 DUP2 PUSH2 0x22B JUMP JUMPDEST DUP3 MSTORE POP POP JUMP JUMPDEST PUSH0 PUSH1 0x20 DUP3 ADD SWAP1 POP PUSH2 0x5BC PUSH0 DUP4 ADD DUP5 PUSH2 0x59A JUMP JUMPDEST SWAP3 SWAP2 POP POP JUMP JUMPDEST PUSH2 0x3091 DUP1 PUSH2 0x5CF PUSH0 CODECOPY PUSH0 RETURN INVALID PUSH1 0x80 PUSH1 0x40 MSTORE CALLVALUE DUP1 ISZERO PUSH2 0xF JUMPI PUSH0 DUP1 REVERT JUMPDEST POP PUSH1 0x4 CALLDATASIZE LT PUSH2 0x14B JUMPI PUSH0 CALLDATALOAD PUSH1 0xE0 SHR DUP1 PUSH4 0x6352211E GT PUSH2 0xC1 JUMPI DUP1 PUSH4 0xA22CB465 GT PUSH2 0x7A JUMPI DUP1 PUSH4 0xA22CB465 EQ PUSH2 0x3D9 JUMPI DUP1 PUSH4 0xB856CEBD EQ PUSH2 0x3F5 JUMPI DUP1 PUSH4 0xB88D4FDE EQ PUSH2 0x425 JUMPI DUP1 PUSH4 0xC87B56DD EQ PUSH2 0x441 JUMPI DUP1 PUSH4 0xE985E9C5 EQ PUSH2 0x471 JUMPI DUP1 PUSH4 0xF2FDE38B EQ PUSH2 0x4A1 JUMPI PUSH2 0x14B JUMP JUMPDEST DUP1 PUSH4 0x6352211E EQ PUSH2 0x2FF JUMPI DUP1 PUSH4 0x663B3E22 EQ PUSH2 0x32F JUMPI DUP1 PUSH4 0x70A08231 EQ PUSH2 0x363 JUMPI DUP1 PUSH4 0x715018A6 EQ PUSH2 0x393 JUMPI DUP1 PUSH4 0x8DA5CB5B EQ PUSH2 0x39D JUMPI DUP1 PUSH4 0x95D89B41 EQ PUSH2 0x3BB JUMPI PUSH2 0x14B JUMP JUMPDEST DUP1 PUSH4 0x23B872DD GT PUSH2 0x113 JUMPI DUP1 PUSH4 0x23B872DD EQ PUSH2 0x207 JUMPI DUP1 PUSH4 0x27994AA4 EQ PUSH2 0x223 JUMPI DUP1 PUSH4 0x2F745C59 EQ PUSH2 0x253 JUMPI DUP1 PUSH4 0x42842E0E EQ PUSH2 0x283 JUMPI DUP1 PUSH4 0x4F6CCCE7 EQ PUSH2 0x29F JUMPI DUP1 PUSH4 0x5B47CE64 EQ PUSH2 0x2CF JUMPI PUSH2 0x14B JUMP JUMPDEST DUP1 PUSH4 0x1FFC9A7 EQ PUSH2 0x14F JUMPI DUP1 PUSH4 0x6FDDE03 EQ PUSH2 0x17F JUMPI DUP1 PUSH4 0x81812FC EQ PUSH2 0x19D JUMPI DUP1 PUSH4 0x95EA7B3 EQ PUSH2 0x1CD JUMPI DUP1 PUSH4 0x18160DDD EQ PUSH2 0x1E9 JUMPI JUMPDEST PUSH0 DUP1 REVERT JUMPDEST PUSH2 0x169 PUSH1 0x4 DUP1 CALLDATASIZE SUB DUP2 ADD SWAP1 PUSH2 0x164 SWAP2 SWAP1 PUSH2 0x22E9 JUMP JUMPDEST PUSH2 0x4BD JUMP JUMPDEST PUSH1 0x40 MLOAD PUSH2 0x176 SWAP2 SWAP1 PUSH2 0x232E JUMP JUMPDEST PUSH1 0x40 MLOAD DUP1 SWAP2 SUB SWAP1 RETURN JUMPDEST PUSH2 0x187 PUSH2 0x4CE JUMP JUMPDEST PUSH1 0x40 MLOAD PUSH2 0x194 SWAP2 SWAP1 PUSH2 0x23B7 JUMP JUMPDEST PUSH1 0x40 MLOAD DUP1 SWAP2 SUB SWAP1 RETURN JUMPDEST PUSH2 0x1B7 PUSH1 0x4 DUP1 CALLDATASIZE SUB DUP2 ADD SWAP1 PUSH2 0x1B2 SWAP2 SWAP1 PUSH2 0x240A JUMP JUMPDEST PUSH2 0x55D JUMP JUMPDEST PUSH1 0x40 MLOAD PUSH2 0x1C4 SWAP2 SWAP1 PUSH2 0x2474 JUMP JUMPDEST PUSH1 0x40 MLOAD DUP1 SWAP2 SUB SWAP1 RETURN JUMPDEST PUSH2 0x1E7 PUSH1 0x4 DUP1 CALLDATASIZE SUB DUP2 ADD SWAP1 PUSH2 0x1E2 SWAP2 SWAP1 PUSH2 0x24B7 JUMP JUMPDEST PUSH2 0x578 JUMP JUMPDEST STOP JUMPDEST PUSH2 0x1F1 PUSH2 0x58E JUMP JUMPDEST PUSH1 0x40 MLOAD PUSH2 0x1FE SWAP2 SWAP1 PUSH2 0x2504 JUMP JUMPDEST PUSH1 0x40 MLOAD DUP1 SWAP2 SUB SWAP1 RETURN JUMPDEST PUSH2 0x221 PUSH1 0x4 DUP1 CALLDATASIZE SUB DUP2 ADD SWAP1 PUSH2 0x21C SWAP2 SWAP1 PUSH2 0x251D JUMP JUMPDEST PUSH2 0x59A JUMP JUMPDEST STOP JUMPDEST PUSH2 0x23D PUSH1 0x4 DUP1 CALLDATASIZE SUB DUP2 ADD SWAP1 PUSH2 0x238 SWAP2 SWAP1 PUSH2 0x2699 JUMP JUMPDEST PUSH2 0x699 JUMP JUMPDEST PUSH1 0x40 MLOAD PUSH2 0x24A SWAP2 SWAP1 PUSH2 0x2504 JUMP JUMPDEST PUSH1 0x40 MLOAD DUP1 SWAP2 SUB SWAP1 RETURN JUMPDEST PUSH2 0x26D PUSH1 0x4 DUP1 CALLDATASIZE SUB DUP2 ADD SWAP1 PUSH2 0x268 SWAP2 SWAP1 PUSH2 0x24B7 JUMP JUMPDEST PUSH2 0x8DF JUMP JUMPDEST PUSH1 0x40 MLOAD PUSH2 0x27A SWAP2 SWAP1 PUSH2 0x2504 JUMP JUMPDEST PUSH1 0x40 MLOAD DUP1 SWAP2 SUB SWAP1 RETURN JUMPDEST PUSH2 0x29D PUSH1 0x4 DUP1 CALLDATASIZE SUB DUP2 ADD SWAP1 PUSH2 0x298 SWAP2 SWAP1 PUSH2 0x251D JUMP JUMPDEST PUSH2 0x983 JUMP JUMPDEST STOP JUMPDEST PUSH2 0x2B9 PUSH1 0x4 DUP1 CALLDATASIZE SUB DUP2 ADD SWAP1 PUSH2 0x2B4 SWAP2 SWAP1 PUSH2 0x240A JUMP JUMPDEST PUSH2 0x9A2 JUMP JUMPDEST PUSH1 0x40 MLOAD PUSH2 0x2C6 SWAP2 SWAP1 PUSH2 0x2504 JUMP JUMPDEST PUSH1 0x40 MLOAD DUP1 SWAP2 SUB SWAP1 RETURN JUMPDEST PUSH2 0x2E9 PUSH1 0x4 DUP1 CALLDATASIZE SUB DUP2 ADD SWAP1 PUSH2 0x2E4 SWAP2 SWAP1 PUSH2 0x24B7 JUMP JUMPDEST PUSH2 0xA14 JUMP JUMPDEST PUSH1 0x40 MLOAD PUSH2 0x2F6 SWAP2 SWAP1 PUSH2 0x232E JUMP JUMPDEST PUSH1 0x40 MLOAD DUP1 SWAP2 SUB SWAP1 RETURN JUMPDEST PUSH2 0x319 PUSH1 0x4 DUP1 CALLDATASIZE SUB DUP2 ADD SWAP1 PUSH2 0x314 SWAP2 SWAP1 PUSH2 0x240A JUMP JUMPDEST PUSH2 0xA3E JUMP JUMPDEST PUSH1 0x40 MLOAD PUSH2 0x326 SWAP2 SWAP1 PUSH2 0x2474 JUMP JUMPDEST PUSH1 0x40 MLOAD DUP1 SWAP2 SUB SWAP1 RETURN JUMPDEST PUSH2 0x349 PUSH1 0x4 DUP1 CALLDATASIZE SUB DUP2 ADD SWAP1 PUSH2 0x344 SWAP2 SWAP1 PUSH2 0x240A JUMP JUMPDEST PUSH2 0xA4F JUMP JUMPDEST PUSH1 0x40 MLOAD PUSH2 0x35A SWAP6 SWAP5 SWAP4 SWAP3 SWAP2 SWAP1 PUSH2 0x2721 JUMP JUMPDEST PUSH1 0x40 MLOAD DUP1 SWAP2 SUB SWAP1 RETURN JUMPDEST PUSH2 0x37D PUSH1 0x4 DUP1 CALLDATASIZE SUB DUP2 ADD SWAP1 PUSH2 0x378 SWAP2 SWAP1 PUSH2 0x2780 JUMP JUMPDEST PUSH2 0xBAC JUMP JUMPDEST PUSH1 0x40 MLOAD PUSH2 0x38A SWAP2 SWAP1 PUSH2 0x2504 JUMP JUMPDEST PUSH1 0x40 MLOAD DUP1 SWAP2 SUB SWAP1 RETURN JUMPDEST PUSH2 0x39B PUSH2 0xC62 JUMP JUMPDEST STOP JUMPDEST PUSH2 0x3A5 PUSH2 0xC75 JUMP JUMPDEST PUSH1 0x40 MLOAD PUSH2 0x3B2 SWAP2 SWAP1 PUSH2 0x2474 JUMP JUMPDEST PUSH1 0x40 MLOAD DUP1 SWAP2 SUB SWAP1 RETURN JUMPDEST PUSH2 0x3C3 PUSH2 0xC9D JUMP JUMPDEST PUSH1 0x40 MLOAD PUSH2 0x3D0 SWAP2 SWAP1 PUSH2 0x23B7 JUMP JUMPDEST PUSH1 0x40 MLOAD DUP1 SWAP2 SUB SWAP1 RETURN JUMPDEST PUSH2 0x3F3 PUSH1 0x4 DUP1 CALLDATASIZE SUB DUP2 ADD SWAP1 PUSH2 0x3EE SWAP2 SWAP1 PUSH2 0x27D5 JUMP JUMPDEST PUSH2 0xD2D JUMP JUMPDEST STOP JUMPDEST PUSH2 0x40F PUSH1 0x4 DUP1 CALLDATASIZE SUB DUP2 ADD SWAP1 PUSH2 0x40A SWAP2 SWAP1 PUSH2 0x2780 JUMP JUMPDEST PUSH2 0xD43 JUMP JUMPDEST PUSH1 0x40 MLOAD PUSH2 0x41C SWAP2 SWAP1 PUSH2 0x28CA JUMP JUMPDEST PUSH1 0x40 MLOAD DUP1 SWAP2 SUB SWAP1 RETURN JUMPDEST PUSH2 0x43F PUSH1 0x4 DUP1 CALLDATASIZE SUB DUP2 ADD SWAP1 PUSH2 0x43A SWAP2 SWAP1 PUSH2 0x2988 JUMP JUMPDEST PUSH2 0xEEC JUMP JUMPDEST STOP JUMPDEST PUSH2 0x45B PUSH1 0x4 DUP1 CALLDATASIZE SUB DUP2 ADD SWAP1 PUSH2 0x456 SWAP2 SWAP1 PUSH2 0x240A JUMP JUMPDEST PUSH2 0xF11 JUMP JUMPDEST PUSH1 0x40 MLOAD PUSH2 0x468 SWAP2 SWAP1 PUSH2 0x23B7 JUMP JUMPDEST PUSH1 0x40 MLOAD DUP1 SWAP2 SUB SWAP1 RETURN JUMPDEST PUSH2 0x48B PUSH1 0x4 DUP1 CALLDATASIZE SUB DUP2 ADD SWAP1 PUSH2 0x486 SWAP2 SWAP1 PUSH2 0x2A08 JUMP JUMPDEST PUSH2 0xF23 JUMP JUMPDEST PUSH1 0x40 MLOAD PUSH2 0x498 SWAP2 SWAP1 PUSH2 0x232E JUMP JUMPDEST PUSH1 0x40 MLOAD DUP1 SWAP2 SUB SWAP1 RETURN JUMPDEST PUSH2 0x4BB PUSH1 0x4 DUP1 CALLDATASIZE SUB DUP2 ADD SWAP1 PUSH2 0x4B6 SWAP2 SWAP1 PUSH2 0x2780 JUMP JUMPDEST PUSH2 0xFB1 JUMP JUMPDEST STOP JUMPDEST PUSH0 PUSH2 0x4C7 DUP3 PUSH2 0x1035 JUMP JUMPDEST SWAP1 POP SWAP2 SWAP1 POP JUMP JUMPDEST PUSH1 0x60 PUSH0 DUP1 SLOAD PUSH2 0x4DC SWAP1 PUSH2 0x2A73 JUMP JUMPDEST DUP1 PUSH1 0x1F ADD PUSH1 0x20 DUP1 SWAP2 DIV MUL PUSH1 0x20 ADD PUSH1 0x40 MLOAD SWAP1 DUP2 ADD PUSH1 0x40 MSTORE DUP1 SWAP3 SWAP2 SWAP1 DUP2 DUP2 MSTORE PUSH1 0x20 ADD DUP3 DUP1 SLOAD PUSH2 0x508 SWAP1 PUSH2 0x2A73 JUMP JUMPDEST DUP1 ISZERO PUSH2 0x553 JUMPI DUP1 PUSH1 0x1F LT PUSH2 0x52A JUMPI PUSH2 0x100 DUP1 DUP4 SLOAD DIV MUL DUP4 MSTORE SWAP2 PUSH1 0x20 ADD SWAP2 PUSH2 0x553 JUMP JUMPDEST DUP3 ADD SWAP2 SWAP1 PUSH0 MSTORE PUSH1 0x20 PUSH0 KECCAK256 SWAP1 JUMPDEST DUP2 SLOAD DUP2 MSTORE SWAP1 PUSH1 0x1 ADD SWAP1 PUSH1 0x20 ADD DUP1 DUP4 GT PUSH2 0x536 JUMPI DUP3 SWAP1 SUB PUSH1 0x1F AND DUP3 ADD SWAP2 JUMPDEST POP POP POP POP POP SWAP1 POP SWAP1 JUMP JUMPDEST PUSH0 PUSH2 0x567 DUP3 PUSH2 0x1095 JUMP JUMPDEST POP PUSH2 0x571 DUP3 PUSH2 0x111B JUMP JUMPDEST SWAP1 POP SWAP2 SWAP1 POP JUMP JUMPDEST PUSH2 0x58A DUP3 DUP3 PUSH2 0x585 PUSH2 0x1154 JUMP JUMPDEST PUSH2 0x115B JUMP JUMPDEST POP POP JUMP JUMPDEST PUSH0 PUSH1 0x8 DUP1 SLOAD SWAP1 POP SWAP1 POP SWAP1 JUMP JUMPDEST PUSH0 PUSH20 0xFFFFFFFFFFFFFFFFFFFFFFFFFFFFFFFFFFFFFFFF AND DUP3 PUSH20 0xFFFFFFFFFFFFFFFFFFFFFFFFFFFFFFFFFFFFFFFF AND SUB PUSH2 0x60A JUMPI PUSH0 PUSH1 0x40 MLOAD PUSH32 0x64A0AE9200000000000000000000000000000000000000000000000000000000 DUP2 MSTORE PUSH1 0x4 ADD PUSH2 0x601 SWAP2 SWAP1 PUSH2 0x2474 JUMP JUMPDEST PUSH1 0x40 MLOAD DUP1 SWAP2 SUB SWAP1 REVERT JUMPDEST PUSH0 PUSH2 0x61D DUP4 DUP4 PUSH2 0x618 PUSH2 0x1154 JUMP JUMPDEST PUSH2 0x116D JUMP JUMPDEST SWAP1 POP DUP4 PUSH20 0xFFFFFFFFFFFFFFFFFFFFFFFFFFFFFFFFFFFFFFFF AND DUP2 PUSH20 0xFFFFFFFFFFFFFFFFFFFFFFFFFFFFFFFFFFFFFFFF AND EQ PUSH2 0x693 JUMPI DUP4 DUP3 DUP3 PUSH1 0x40 MLOAD PUSH32 0x64283D7B00000000000000000000000000000000000000000000000000000000 DUP2 MSTORE PUSH1 0x4 ADD PUSH2 0x68A SWAP4 SWAP3 SWAP2 SWAP1 PUSH2 0x2AA3 JUMP JUMPDEST PUSH1 0x40 MLOAD DUP1 SWAP2 SUB SWAP1 REVERT JUMPDEST POP POP POP POP JUMP JUMPDEST PUSH0 PUSH1 0xE PUSH0 CALLER PUSH20 0xFFFFFFFFFFFFFFFFFFFFFFFFFFFFFFFFFFFFFFFF AND PUSH20 0xFFFFFFFFFFFFFFFFFFFFFFFFFFFFFFFFFFFFFFFF AND DUP2 MSTORE PUSH1 0x20 ADD SWAP1 DUP2 MSTORE PUSH1 0x20 ADD PUSH0 KECCAK256 PUSH0 DUP6 DUP2 MSTORE PUSH1 0x20 ADD SWAP1 DUP2 MSTORE PUSH1 0x20 ADD PUSH0 KECCAK256 PUSH0 SWAP1 SLOAD SWAP1 PUSH2 0x100 EXP SWAP1 DIV PUSH1 0xFF AND ISZERO PUSH2 0x733 JUMPI PUSH1 0x40 MLOAD PUSH32 0x8C379A000000000000000000000000000000000000000000000000000000000 DUP2 MSTORE PUSH1 0x4 ADD PUSH2 0x72A SWAP1 PUSH2 0x2B22 JUMP JUMPDEST PUSH1 0x40 MLOAD DUP1 SWAP2 SUB SWAP1 REVERT JUMPDEST PUSH2 0x73D PUSH1 0xC PUSH2 0x1182 JUMP JUMPDEST PUSH0 PUSH2 0x748 PUSH1 0xC PUSH2 0x1196 JUMP JUMPDEST SWAP1 POP PUSH2 0x754 CALLER DUP3 PUSH2 0x11A2 JUMP JUMPDEST PUSH2 0x75E DUP2 DUP5 PUSH2 0x11BF JUMP JUMPDEST PUSH1 0x40 MLOAD DUP1 PUSH1 0xA0 ADD PUSH1 0x40 MSTORE DUP1 DUP7 DUP2 MSTORE PUSH1 0x20 ADD DUP6 DUP2 MSTORE PUSH1 0x20 ADD CALLER PUSH20 0xFFFFFFFFFFFFFFFFFFFFFFFFFFFFFFFFFFFFFFFF AND DUP2 MSTORE PUSH1 0x20 ADD TIMESTAMP DUP2 MSTORE PUSH1 0x20 ADD DUP5 DUP2 MSTORE POP PUSH1 0xD PUSH0 DUP4 DUP2 MSTORE PUSH1 0x20 ADD SWAP1 DUP2 MSTORE PUSH1 0x20 ADD PUSH0 KECCAK256 PUSH0 DUP3 ADD MLOAD DUP2 PUSH0 ADD SSTORE PUSH1 0x20 DUP3 ADD MLOAD DUP2 PUSH1 0x1 ADD SWAP1 DUP2 PUSH2 0x7C9 SWAP2 SWAP1 PUSH2 0x2CDD JUMP JUMPDEST POP PUSH1 0x40 DUP3 ADD MLOAD DUP2 PUSH1 0x2 ADD PUSH0 PUSH2 0x100 EXP DUP2 SLOAD DUP2 PUSH20 0xFFFFFFFFFFFFFFFFFFFFFFFFFFFFFFFFFFFFFFFF MUL NOT AND SWAP1 DUP4 PUSH20 0xFFFFFFFFFFFFFFFFFFFFFFFFFFFFFFFFFFFFFFFF AND MUL OR SWAP1 SSTORE POP PUSH1 0x60 DUP3 ADD MLOAD DUP2 PUSH1 0x3 ADD SSTORE PUSH1 0x80 DUP3 ADD MLOAD DUP2 PUSH1 0x4 ADD SWAP1 DUP2 PUSH2 0x82F SWAP2 SWAP1 PUSH2 0x2CDD JUMP JUMPDEST POP SWAP1 POP POP PUSH1 0x1 PUSH1 0xE PUSH0 CALLER PUSH20 0xFFFFFFFFFFFFFFFFFFFFFFFFFFFFFFFFFFFFFFFF AND PUSH20 0xFFFFFFFFFFFFFFFFFFFFFFFFFFFFFFFFFFFFFFFF AND DUP2 MSTORE PUSH1 0x20 ADD SWAP1 DUP2 MSTORE PUSH1 0x20 ADD PUSH0 KECCAK256 PUSH0 DUP8 DUP2 MSTORE PUSH1 0x20 ADD SWAP1 DUP2 MSTORE PUSH1 0x20 ADD PUSH0 KECCAK256 PUSH0 PUSH2 0x100 EXP DUP2 SLOAD DUP2 PUSH1 0xFF MUL NOT AND SWAP1 DUP4 ISZERO ISZERO MUL OR SWAP1 SSTORE POP PUSH32 0xC634E044312EB7DC5719A0882979EF83FFF07A9C7C0BE5ED5D068B63A246729E DUP2 CALLER DUP8 DUP8 PUSH1 0x40 MLOAD PUSH2 0x8CC SWAP5 SWAP4 SWAP3 SWAP2 SWAP1 PUSH2 0x2DAC JUMP JUMPDEST PUSH1 0x40 MLOAD DUP1 SWAP2 SUB SWAP1 LOG1 DUP1 SWAP2 POP POP SWAP4 SWAP3 POP POP POP JUMP JUMPDEST PUSH0 PUSH2 0x8E9 DUP4 PUSH2 0xBAC JUMP JUMPDEST DUP3 LT PUSH2 0x92E JUMPI DUP3 DUP3 PUSH1 0x40 MLOAD PUSH32 0xA57D13DC00000000000000000000000000000000000000000000000000000000 DUP2 MSTORE PUSH1 0x4 ADD PUSH2 0x925 SWAP3 SWAP2 SWAP1 PUSH2 0x2DF6 JUMP JUMPDEST PUSH1 0x40 MLOAD DUP1 SWAP2 SUB SWAP1 REVERT JUMPDEST PUSH1 0x6 PUSH0 DUP5 PUSH20 0xFFFFFFFFFFFFFFFFFFFFFFFFFFFFFFFFFFFFFFFF AND PUSH20 0xFFFFFFFFFFFFFFFFFFFFFFFFFFFFFFFFFFFFFFFF AND DUP2 MSTORE PUSH1 0x20 ADD SWAP1 DUP2 MSTORE PUSH1 0x20 ADD PUSH0 KECCAK256 PUSH0 DUP4 DUP2 MSTORE PUSH1 0x20 ADD SWAP1 DUP2 MSTORE PUSH1 0x20 ADD PUSH0 KECCAK256 SLOAD SWAP1 POP SWAP3 SWAP2 POP POP JUMP JUMPDEST PUSH2 0x99D DUP4 DUP4 DUP4 PUSH1 0x40 MLOAD DUP1 PUSH1 0x20 ADD PUSH1 0x40 MSTORE DUP1 PUSH0 DUP2 MSTORE POP PUSH2 0xEEC JUMP JUMPDEST POP POP POP JUMP JUMPDEST PUSH0 PUSH2 0x9AB PUSH2 0x58E JUMP JUMPDEST DUP3 LT PUSH2 0x9F0 JUMPI PUSH0 DUP3 PUSH1 0x40 MLOAD PUSH32 0xA57D13DC00000000000000000000000000000000000000000000000000000000 DUP2 MSTORE PUSH1 0x4 ADD PUSH2 0x9E7 SWAP3 SWAP2 SWAP1 PUSH2 0x2DF6 JUMP JUMPDEST PUSH1 0x40 MLOAD DUP1 SWAP2 SUB SWAP1 REVERT JUMPDEST PUSH1 0x8 DUP3 DUP2 SLOAD DUP2 LT PUSH2 0xA04 JUMPI PUSH2 0xA03 PUSH2 0x2E1D JUMP JUMPDEST JUMPDEST SWAP1 PUSH0 MSTORE PUSH1 0x20 PUSH0 KECCAK256 ADD SLOAD SWAP1 POP SWAP2 SWAP1 POP JUMP JUMPDEST PUSH1 0xE PUSH1 0x20 MSTORE DUP2 PUSH0 MSTORE PUSH1 0x40 PUSH0 KECCAK256 PUSH1 0x20 MSTORE DUP1 PUSH0 MSTORE PUSH1 0x40 PUSH0 KECCAK256 PUSH0 SWAP2 POP SWAP2 POP SWAP1 SLOAD SWAP1 PUSH2 0x100 EXP SWAP1 DIV PUSH1 0xFF AND DUP2 JUMP JUMPDEST PUSH0 PUSH2 0xA48 DUP3 PUSH2 0x1095 JUMP JUMPDEST SWAP1 POP SWAP2 SWAP1 POP JUMP JUMPDEST PUSH1 0xD PUSH1 0x20 MSTORE DUP1 PUSH0 MSTORE PUSH1 0x40 PUSH0 KECCAK256 PUSH0 SWAP2 POP SWAP1 POP DUP1 PUSH0 ADD SLOAD SWAP1 DUP1 PUSH1 0x1 ADD DUP1 SLOAD PUSH2 0xA74 SWAP1 PUSH2 0x2A73 JUMP JUMPDEST DUP1 PUSH1 0x1F ADD PUSH1 0x20 DUP1 SWAP2 DIV MUL PUSH1 0x20 ADD PUSH1 0x40 MLOAD SWAP1 DUP2 ADD PUSH1 0x40 MSTORE DUP1 SWAP3 SWAP2 SWAP1 DUP2 DUP2 MSTORE PUSH1 0x20 ADD DUP3 DUP1 SLOAD PUSH2 0xAA0 SWAP1 PUSH2 0x2A73 JUMP JUMPDEST DUP1 ISZERO PUSH2 0xAEB JUMPI DUP1 PUSH1 0x1F LT PUSH2 0xAC2 JUMPI PUSH2 0x100 DUP1 DUP4 SLOAD DIV MUL DUP4 MSTORE SWAP2 PUSH1 0x20 ADD SWAP2 PUSH2 0xAEB JUMP JUMPDEST DUP3 ADD SWAP2 SWAP1 PUSH0 MSTORE PUSH1 0x20 PUSH0 KECCAK256 SWAP1 JUMPDEST DUP2 SLOAD DUP2 MSTORE SWAP1 PUSH1 0x1 ADD SWAP1 PUSH1 0x20 ADD DUP1 DUP4 GT PUSH2 0xACE JUMPI DUP3 SWAP1 SUB PUSH1 0x1F AND DUP3 ADD SWAP2 JUMPDEST POP POP POP POP POP SWAP1 DUP1 PUSH1 0x2 ADD PUSH0 SWAP1 SLOAD SWAP1 PUSH2 0x100 EXP SWAP1 DIV PUSH20 0xFFFFFFFFFFFFFFFFFFFFFFFFFFFFFFFFFFFFFFFF AND SWAP1 DUP1 PUSH1 0x3 ADD SLOAD SWAP1 DUP1 PUSH1 0x4 ADD DUP1 SLOAD PUSH2 0xB2B SWAP1 PUSH2 0x2A73 JUMP JUMPDEST DUP1 PUSH1 0x1F ADD PUSH1 0x20 DUP1 SWAP2 DIV MUL PUSH1 0x20 ADD PUSH1 0x40 MLOAD SWAP1 DUP2 ADD PUSH1 0x40 MSTORE DUP1 SWAP3 SWAP2 SWAP1 DUP2 DUP2 MSTORE PUSH1 0x20 ADD DUP3 DUP1 SLOAD PUSH2 0xB57 SWAP1 PUSH2 0x2A73 JUMP JUMPDEST DUP1 ISZERO PUSH2 0xBA2 JUMPI DUP1 PUSH1 0x1F LT PUSH2 0xB79 JUMPI PUSH2 0x100 DUP1 DUP4 SLOAD DIV MUL DUP4 MSTORE SWAP2 PUSH1 0x20 ADD SWAP2 PUSH2 0xBA2 JUMP JUMPDEST DUP3 ADD SWAP2 SWAP1 PUSH0 MSTORE PUSH1 0x20 PUSH0 KECCAK256 SWAP1 JUMPDEST DUP2 SLOAD DUP2 MSTORE SWAP1 PUSH1 0x1 ADD SWAP1 PUSH1 0x20 ADD DUP1 DUP4 GT PUSH2 0xB85 JUMPI DUP3 SWAP1 SUB PUSH1 0x1F AND DUP3 ADD SWAP2 JUMPDEST POP POP POP POP POP SWAP1 POP DUP6 JUMP JUMPDEST PUSH0 DUP1 PUSH20 0xFFFFFFFFFFFFFFFFFFFFFFFFFFFFFFFFFFFFFFFF AND DUP3 PUSH20 0xFFFFFFFFFFFFFFFFFFFFFFFFFFFFFFFFFFFFFFFF AND SUB PUSH2 0xC1D JUMPI PUSH0 PUSH1 0x40 MLOAD PUSH32 0x89C62B6400000000000000000000000000000000000000000000000000000000 DUP2 MSTORE PUSH1 0x4 ADD PUSH2 0xC14 SWAP2 SWAP1 PUSH2 0x2474 JUMP JUMPDEST PUSH1 0x40 MLOAD DUP1 SWAP2 SUB SWAP1 REVERT JUMPDEST PUSH1 0x3 PUSH0 DUP4 PUSH20 0xFFFFFFFFFFFFFFFFFFFFFFFFFFFFFFFFFFFFFFFF AND PUSH20 0xFFFFFFFFFFFFFFFFFFFFFFFFFFFFFFFFFFFFFFFF AND DUP2 MSTORE PUSH1 0x20 ADD SWAP1 DUP2 MSTORE PUSH1 0x20 ADD PUSH0 KECCAK256 SLOAD SWAP1 POP SWAP2 SWAP1 POP JUMP JUMPDEST PUSH2 0xC6A PUSH2 0x1219 JUMP JUMPDEST PUSH2 0xC73 PUSH0 PUSH2 0x12A0 JUMP JUMPDEST JUMP JUMPDEST PUSH0 PUSH1 0xB PUSH0 SWAP1 SLOAD SWAP1 PUSH2 0x100 EXP SWAP1 DIV PUSH20 0xFFFFFFFFFFFFFFFFFFFFFFFFFFFFFFFFFFFFFFFF AND SWAP1 POP SWAP1 JUMP JUMPDEST PUSH1 0x60 PUSH1 0x1 DUP1 SLOAD PUSH2 0xCAC SWAP1 PUSH2 0x2A73 JUMP JUMPDEST DUP1 PUSH1 0x1F ADD PUSH1 0x20 DUP1 SWAP2 DIV MUL PUSH1 0x20 ADD PUSH1 0x40 MLOAD SWAP1 DUP2 ADD PUSH1 0x40 MSTORE DUP1 SWAP3 SWAP2 SWAP1 DUP2 DUP2 MSTORE PUSH1 0x20 ADD DUP3 DUP1 SLOAD PUSH2 0xCD8 SWAP1 PUSH2 0x2A73 JUMP JUMPDEST DUP1 ISZERO PUSH2 0xD23 JUMPI DUP1 PUSH1 0x1F LT PUSH2 0xCFA JUMPI PUSH2 0x100 DUP1 DUP4 SLOAD DIV MUL DUP4 MSTORE SWAP2 PUSH1 0x20 ADD SWAP2 PUSH2 0xD23 JUMP JUMPDEST DUP3 ADD SWAP2 SWAP1 PUSH0 MSTORE PUSH1 0x20 PUSH0 KECCAK256 SWAP1 JUMPDEST DUP2 SLOAD DUP2 MSTORE SWAP1 PUSH1 0x1 ADD SWAP1 PUSH1 0x20 ADD DUP1 DUP4 GT PUSH2 0xD06 JUMPI DUP3 SWAP1 SUB PUSH1 0x1F AND DUP3 ADD SWAP2 JUMPDEST POP POP POP POP POP SWAP1 POP SWAP1 JUMP JUMPDEST PUSH2 0xD3F PUSH2 0xD38 PUSH2 0x1154 JUMP JUMPDEST DUP4 DUP4 PUSH2 0x1363 JUMP JUMPDEST POP POP JUMP JUMPDEST PUSH1 0x60 PUSH0 DUP1 PUSH1 0x1 SWAP1 POP JUMPDEST PUSH2 0xD56 PUSH1 0xC PUSH2 0x1196 JUMP JUMPDEST DUP2 GT PUSH2 0xDDC JUMPI PUSH1 0xE PUSH0 DUP6 PUSH20 0xFFFFFFFFFFFFFFFFFFFFFFFFFFFFFFFFFFFFFFFF AND PUSH20 0xFFFFFFFFFFFFFFFFFFFFFFFFFFFFFFFFFFFFFFFF AND DUP2 MSTORE PUSH1 0x20 ADD SWAP1 DUP2 MSTORE PUSH1 0x20 ADD PUSH0 KECCAK256 PUSH0 DUP3 DUP2 MSTORE PUSH1 0x20 ADD SWAP1 DUP2 MSTORE PUSH1 0x20 ADD PUSH0 KECCAK256 PUSH0 SWAP1 SLOAD SWAP1 PUSH2 0x100 EXP SWAP1 DIV PUSH1 0xFF AND ISZERO PUSH2 0xDC9 JUMPI DUP2 DUP1 PUSH2 0xDC5 SWAP1 PUSH2 0x2E77 JUMP JUMPDEST SWAP3 POP POP JUMPDEST DUP1 DUP1 PUSH2 0xDD4 SWAP1 PUSH2 0x2E77 JUMP JUMPDEST SWAP2 POP POP PUSH2 0xD4C JUMP JUMPDEST POP PUSH0 DUP2 PUSH8 0xFFFFFFFFFFFFFFFF DUP2 GT ISZERO PUSH2 0xDF8 JUMPI PUSH2 0xDF7 PUSH2 0x2575 JUMP JUMPDEST JUMPDEST PUSH1 0x40 MLOAD SWAP1 DUP1 DUP3 MSTORE DUP1 PUSH1 0x20 MUL PUSH1 0x20 ADD DUP3 ADD PUSH1 0x40 MSTORE DUP1 ISZERO PUSH2 0xE26 JUMPI DUP2 PUSH1 0x20 ADD PUSH1 0x20 DUP3 MUL DUP1 CALLDATASIZE DUP4 CALLDATACOPY DUP1 DUP3 ADD SWAP2 POP POP SWAP1 POP JUMPDEST POP SWAP1 POP PUSH0 DUP1 PUSH1 0x1 SWAP1 POP JUMPDEST PUSH2 0xE3A PUSH1 0xC PUSH2 0x1196 JUMP JUMPDEST DUP2 GT PUSH2 0xEE0 JUMPI PUSH1 0xE PUSH0 DUP8 PUSH20 0xFFFFFFFFFFFFFFFFFFFFFFFFFFFFFFFFFFFFFFFF AND PUSH20 0xFFFFFFFFFFFFFFFFFFFFFFFFFFFFFFFFFFFFFFFF AND DUP2 MSTORE PUSH1 0x20 ADD SWAP1 DUP2 MSTORE PUSH1 0x20 ADD PUSH0 KECCAK256 PUSH0 DUP3 DUP2 MSTORE PUSH1 0x20 ADD SWAP1 DUP2 MSTORE PUSH1 0x20 ADD PUSH0 KECCAK256 PUSH0 SWAP1 SLOAD SWAP1 PUSH2 0x100 EXP SWAP1 DIV PUSH1 0xFF AND ISZERO PUSH2 0xECD JUMPI DUP1 DUP4 DUP4 DUP2 MLOAD DUP2 LT PUSH2 0xEB2 JUMPI PUSH2 0xEB1 PUSH2 0x2E1D JUMP JUMPDEST JUMPDEST PUSH1 0x20 MUL PUSH1 0x20 ADD ADD DUP2 DUP2 MSTORE POP POP DUP2 DUP1 PUSH2 0xEC9 SWAP1 PUSH2 0x2E77 JUMP JUMPDEST SWAP3 POP POP JUMPDEST DUP1 DUP1 PUSH2 0xED8 SWAP1 PUSH2 0x2E77 JUMP JUMPDEST SWAP2 POP POP PUSH2 0xE30 JUMP JUMPDEST POP DUP2 SWAP4 POP POP POP POP SWAP2 SWAP1 POP JUMP JUMPDEST PUSH2 0xEF7 DUP5 DUP5 DUP5 PUSH2 0x59A JUMP JUMPDEST PUSH2 0xF0B PUSH2 0xF02 PUSH2 0x1154 JUMP JUMPDEST DUP6 DUP6 DUP6 DUP6 PUSH2 0x14CC JUMP JUMPDEST POP POP POP POP JUMP JUMPDEST PUSH1 0x60 PUSH2 0xF1C DUP3 PUSH2 0x1678 JUMP JUMPDEST SWAP1 POP SWAP2 SWAP1 POP JUMP JUMPDEST PUSH0 PUSH1 0x5 PUSH0 DUP5 PUSH20 0xFFFFFFFFFFFFFFFFFFFFFFFFFFFFFFFFFFFFFFFF AND PUSH20 0xFFFFFFFFFFFFFFFFFFFFFFFFFFFFFFFFFFFFFFFF AND DUP2 MSTORE PUSH1 0x20 ADD SWAP1 DUP2 MSTORE PUSH1 0x20 ADD PUSH0 KECCAK256 PUSH0 DUP4 PUSH20 0xFFFFFFFFFFFFFFFFFFFFFFFFFFFFFFFFFFFFFFFF AND PUSH20 0xFFFFFFFFFFFFFFFFFFFFFFFFFFFFFFFFFFFFFFFF AND DUP2 MSTORE PUSH1 0x20 ADD SWAP1 DUP2 MSTORE PUSH1 0x20 ADD PUSH0 KECCAK256 PUSH0 SWAP1 SLOAD SWAP1 PUSH2 0x100 EXP SWAP1 DIV PUSH1 0xFF AND SWAP1 POP SWAP3 SWAP2 POP POP JUMP JUMPDEST PUSH2 0xFB9 PUSH2 0x1219 JUMP JUMPDEST PUSH0 PUSH20 0xFFFFFFFFFFFFFFFFFFFFFFFFFFFFFFFFFFFFFFFF AND DUP2 PUSH20 0xFFFFFFFFFFFFFFFFFFFFFFFFFFFFFFFFFFFFFFFF AND SUB PUSH2 0x1029 JUMPI PUSH0 PUSH1 0x40 MLOAD PUSH32 0x1E4FBDF700000000000000000000000000000000000000000000000000000000 DUP2 MSTORE PUSH1 0x4 ADD PUSH2 0x1020 SWAP2 SWAP1 PUSH2 0x2474 JUMP JUMPDEST PUSH1 0x40 MLOAD DUP1 SWAP2 SUB SWAP1 REVERT JUMPDEST PUSH2 0x1032 DUP2 PUSH2 0x12A0 JUMP JUMPDEST POP JUMP JUMPDEST PUSH0 PUSH4 0x49064906 PUSH1 0xE0 SHL PUSH28 0xFFFFFFFFFFFFFFFFFFFFFFFFFFFFFFFFFFFFFFFFFFFFFFFFFFFFFFFF NOT AND DUP3 PUSH28 0xFFFFFFFFFFFFFFFFFFFFFFFFFFFFFFFFFFFFFFFFFFFFFFFFFFFFFFFF NOT AND EQ DUP1 PUSH2 0x108E JUMPI POP PUSH2 0x108D DUP3 PUSH2 0x1783 JUMP JUMPDEST JUMPDEST SWAP1 POP SWAP2 SWAP1 POP JUMP JUMPDEST PUSH0 DUP1 PUSH2 0x10A0 DUP4 PUSH2 0x17FC JUMP JUMPDEST SWAP1 POP PUSH0 PUSH20 0xFFFFFFFFFFFFFFFFFFFFFFFFFFFFFFFFFFFFFFFF AND DUP2 PUSH20 0xFFFFFFFFFFFFFFFFFFFFFFFFFFFFFFFFFFFFFFFF AND SUB PUSH2 0x1112 JUMPI DUP3 PUSH1 0x40 MLOAD PUSH32 0x7E27328900000000000000000000000000000000000000000000000000000000 DUP2 MSTORE PUSH1 0x4 ADD PUSH2 0x1109 SWAP2 SWAP1 PUSH2 0x2504 JUMP JUMPDEST PUSH1 0x40 MLOAD DUP1 SWAP2 SUB SWAP1 REVERT JUMPDEST DUP1 SWAP2 POP POP SWAP2 SWAP1 POP JUMP JUMPDEST PUSH0 PUSH1 0x4 PUSH0 DUP4 DUP2 MSTORE PUSH1 0x20 ADD SWAP1 DUP2 MSTORE PUSH1 0x20 ADD PUSH0 KECCAK256 PUSH0 SWAP1 SLOAD SWAP1 PUSH2 0x100 EXP SWAP1 DIV PUSH20 0xFFFFFFFFFFFFFFFFFFFFFFFFFFFFFFFFFFFFFFFF AND SWAP1 POP SWAP2 SWAP1 POP JUMP JUMPDEST PUSH0 CALLER SWAP1 POP SWAP1 JUMP JUMPDEST PUSH2 0x1168 DUP4 DUP4 DUP4 PUSH1 0x1 PUSH2 0x1835 JUMP JUMPDEST POP POP POP JUMP JUMPDEST PUSH0 PUSH2 0x1179 DUP5 DUP5 DUP5 PUSH2 0x19F4 JUMP JUMPDEST SWAP1 POP SWAP4 SWAP3 POP POP POP JUMP JUMPDEST PUSH1 0x1 DUP2 PUSH0 ADD PUSH0 DUP3 DUP3 SLOAD ADD SWAP3 POP POP DUP2 SWAP1 SSTORE POP POP JUMP JUMPDEST PUSH0 DUP2 PUSH0 ADD SLOAD SWAP1 POP SWAP2 SWAP1 POP JUMP JUMPDEST PUSH2 0x11BB DUP3 DUP3 PUSH1 0x40 MLOAD DUP1 PUSH1 0x20 ADD PUSH1 0x40 MSTORE DUP1 PUSH0 DUP2 MSTORE POP PUSH2 0x1BFF JUMP JUMPDEST POP POP JUMP JUMPDEST DUP1 PUSH1 0xA PUSH0 DUP5 DUP2 MSTORE PUSH1 0x20 ADD SWAP1 DUP2 MSTORE PUSH1 0x20 ADD PUSH0 KECCAK256 SWAP1 DUP2 PUSH2 0x11DD SWAP2 SWAP1 PUSH2 0x2CDD JUMP JUMPDEST POP PUSH32 0xF8E1A15ABA9398E019F0B49DF1A4FDE98EE17AE345CB5F6B5E2C27F5033E8CE7 DUP3 PUSH1 0x40 MLOAD PUSH2 0x120D SWAP2 SWAP1 PUSH2 0x2504 JUMP JUMPDEST PUSH1 0x40 MLOAD DUP1 SWAP2 SUB SWAP1 LOG1 POP POP JUMP JUMPDEST PUSH2 0x1221 PUSH2 0x1154 JUMP JUMPDEST PUSH20 0xFFFFFFFFFFFFFFFFFFFFFFFFFFFFFFFFFFFFFFFF AND PUSH2 0x123F PUSH2 0xC75 JUMP JUMPDEST PUSH20 0xFFFFFFFFFFFFFFFFFFFFFFFFFFFFFFFFFFFFFFFF AND EQ PUSH2 0x129E JUMPI PUSH2 0x1262 PUSH2 0x1154 JUMP JUMPDEST PUSH1 0x40 MLOAD PUSH32 0x118CDAA700000000000000000000000000000000000000000000000000000000 DUP2 MSTORE PUSH1 0x4 ADD PUSH2 0x1295 SWAP2 SWAP1 PUSH2 0x2474 JUMP JUMPDEST PUSH1 0x40 MLOAD DUP1 SWAP2 SUB SWAP1 REVERT JUMPDEST JUMP JUMPDEST PUSH0 PUSH1 0xB PUSH0 SWAP1 SLOAD SWAP1 PUSH2 0x100 EXP SWAP1 DIV PUSH20 0xFFFFFFFFFFFFFFFFFFFFFFFFFFFFFFFFFFFFFFFF AND SWAP1 POP DUP2 PUSH1 0xB PUSH0 PUSH2 0x100 EXP DUP2 SLOAD DUP2 PUSH20 0xFFFFFFFFFFFFFFFFFFFFFFFFFFFFFFFFFFFFFFFF MUL NOT AND SWAP1 DUP4 PUSH20 0xFFFFFFFFFFFFFFFFFFFFFFFFFFFFFFFFFFFFFFFF AND MUL OR SWAP1 SSTORE POP DUP2 PUSH20 0xFFFFFFFFFFFFFFFFFFFFFFFFFFFFFFFFFFFFFFFF AND DUP2 PUSH20 0xFFFFFFFFFFFFFFFFFFFFFFFFFFFFFFFFFFFFFFFF AND PUSH32 0x8BE0079C531659141344CD1FD0A4F28419497F9722A3DAAFE3B4186F6B6457E0 PUSH1 0x40 MLOAD PUSH1 0x40 MLOAD DUP1 SWAP2 SUB SWAP1 LOG3 POP POP JUMP JUMPDEST PUSH0 PUSH20 0xFFFFFFFFFFFFFFFFFFFFFFFFFFFFFFFFFFFFFFFF AND DUP3 PUSH20 0xFFFFFFFFFFFFFFFFFFFFFFFFFFFFFFFFFFFFFFFF AND SUB PUSH2 0x13D3 JUMPI DUP2 PUSH1 0x40 MLOAD PUSH32 0x5B08BA1800000000000000000000000000000000000000000000000000000000 DUP2 MSTORE PUSH1 0x4 ADD PUSH2 0x13CA SWAP2 SWAP1 PUSH2 0x2474 JUMP JUMPDEST PUSH1 0x40 MLOAD DUP1 SWAP2 SUB SWAP1 REVERT JUMPDEST DUP1 PUSH1 0x5 PUSH0 DUP6 PUSH20 0xFFFFFFFFFFFFFFFFFFFFFFFFFFFFFFFFFFFFFFFF AND PUSH20 0xFFFFFFFFFFFFFFFFFFFFFFFFFFFFFFFFFFFFFFFF AND DUP2 MSTORE PUSH1 0x20 ADD SWAP1 DUP2 MSTORE PUSH1 0x20 ADD PUSH0 KECCAK256 PUSH0 DUP5 PUSH20 0xFFFFFFFFFFFFFFFFFFFFFFFFFFFFFFFFFFFFFFFF AND PUSH20 0xFFFFFFFFFFFFFFFFFFFFFFFFFFFFFFFFFFFFFFFF AND DUP2 MSTORE PUSH1 0x20 ADD SWAP1 DUP2 MSTORE PUSH1 0x20 ADD PUSH0 KECCAK256 PUSH0 PUSH2 0x100 EXP DUP2 SLOAD DUP2 PUSH1 0xFF MUL NOT AND SWAP1 DUP4 ISZERO ISZERO MUL OR SWAP1 SSTORE POP DUP2 PUSH20 0xFFFFFFFFFFFFFFFFFFFFFFFFFFFFFFFFFFFFFFFF AND DUP4 PUSH20 0xFFFFFFFFFFFFFFFFFFFFFFFFFFFFFFFFFFFFFFFF AND PUSH32 0x17307EAB39AB6107E8899845AD3D59BD9653F200F220920489CA2B5937696C31 DUP4 PUSH1 0x40 MLOAD PUSH2 0x14BF SWAP2 SWAP1 PUSH2 0x232E JUMP JUMPDEST PUSH1 0x40 MLOAD DUP1 SWAP2 SUB SWAP1 LOG3 POP POP POP JUMP JUMPDEST PUSH0 DUP4 PUSH20 0xFFFFFFFFFFFFFFFFFFFFFFFFFFFFFFFFFFFFFFFF AND EXTCODESIZE GT ISZERO PUSH2 0x1671 JUMPI DUP3 PUSH20 0xFFFFFFFFFFFFFFFFFFFFFFFFFFFFFFFFFFFFFFFF AND PUSH4 0x150B7A02 DUP7 DUP7 DUP6 DUP6 PUSH1 0x40 MLOAD DUP6 PUSH4 0xFFFFFFFF AND PUSH1 0xE0 SHL DUP2 MSTORE PUSH1 0x4 ADD PUSH2 0x152A SWAP5 SWAP4 SWAP3 SWAP2 SWAP1 PUSH2 0x2F10 JUMP JUMPDEST PUSH1 0x20 PUSH1 0x40 MLOAD DUP1 DUP4 SUB DUP2 PUSH0 DUP8 GAS CALL SWAP3 POP POP POP DUP1 ISZERO PUSH2 0x1565 JUMPI POP PUSH1 0x40 MLOAD RETURNDATASIZE PUSH1 0x1F NOT PUSH1 0x1F DUP3 ADD AND DUP3 ADD DUP1 PUSH1 0x40 MSTORE POP DUP2 ADD SWAP1 PUSH2 0x1562 SWAP2 SWAP1 PUSH2 0x2F6E JUMP JUMPDEST PUSH1 0x1 JUMPDEST PUSH2 0x15E6 JUMPI RETURNDATASIZE DUP1 PUSH0 DUP2 EQ PUSH2 0x1593 JUMPI PUSH1 0x40 MLOAD SWAP2 POP PUSH1 0x1F NOT PUSH1 0x3F RETURNDATASIZE ADD AND DUP3 ADD PUSH1 0x40 MSTORE RETURNDATASIZE DUP3 MSTORE RETURNDATASIZE PUSH0 PUSH1 0x20 DUP5 ADD RETURNDATACOPY PUSH2 0x1598 JUMP JUMPDEST PUSH1 0x60 SWAP2 POP JUMPDEST POP PUSH0 DUP2 MLOAD SUB PUSH2 0x15DE JUMPI DUP4 PUSH1 0x40 MLOAD PUSH32 0x64A0AE9200000000000000000000000000000000000000000000000000000000 DUP2 MSTORE PUSH1 0x4 ADD PUSH2 0x15D5 SWAP2 SWAP1 PUSH2 0x2474 JUMP JUMPDEST PUSH1 0x40 MLOAD DUP1 SWAP2 SUB SWAP1 REVERT JUMPDEST DUP1 MLOAD DUP2 PUSH1 0x20 ADD REVERT JUMPDEST PUSH4 0x150B7A02 PUSH1 0xE0 SHL PUSH28 0xFFFFFFFFFFFFFFFFFFFFFFFFFFFFFFFFFFFFFFFFFFFFFFFFFFFFFFFF NOT AND DUP2 PUSH28 0xFFFFFFFFFFFFFFFFFFFFFFFFFFFFFFFFFFFFFFFFFFFFFFFFFFFFFFFF NOT AND EQ PUSH2 0x166F JUMPI DUP4 PUSH1 0x40 MLOAD PUSH32 0x64A0AE9200000000000000000000000000000000000000000000000000000000 DUP2 MSTORE PUSH1 0x4 ADD PUSH2 0x1666 SWAP2 SWAP1 PUSH2 0x2474 JUMP JUMPDEST PUSH1 0x40 MLOAD DUP1 SWAP2 SUB SWAP1 REVERT JUMPDEST POP JUMPDEST POP POP POP POP POP JUMP JUMPDEST PUSH1 0x60 PUSH2 0x1683 DUP3 PUSH2 0x1095 JUMP JUMPDEST POP PUSH0 PUSH1 0xA PUSH0 DUP5 DUP2 MSTORE PUSH1 0x20 ADD SWAP1 DUP2 MSTORE PUSH1 0x20 ADD PUSH0 KECCAK256 DUP1 SLOAD PUSH2 0x16A1 SWAP1 PUSH2 0x2A73 JUMP JUMPDEST DUP1 PUSH1 0x1F ADD PUSH1 0x20 DUP1 SWAP2 DIV MUL PUSH1 0x20 ADD PUSH1 0x40 MLOAD SWAP1 DUP2 ADD PUSH1 0x40 MSTORE DUP1 SWAP3 SWAP2 SWAP1 DUP2 DUP2 MSTORE PUSH1 0x20 ADD DUP3 DUP1 SLOAD PUSH2 0x16CD SWAP1 PUSH2 0x2A73 JUMP JUMPDEST DUP1 ISZERO PUSH2 0x1718 JUMPI DUP1 PUSH1 0x1F LT PUSH2 0x16EF JUMPI PUSH2 0x100 DUP1 DUP4 SLOAD DIV MUL DUP4 MSTORE SWAP2 PUSH1 0x20 ADD SWAP2 PUSH2 0x1718 JUMP JUMPDEST DUP3 ADD SWAP2 SWAP1 PUSH0 MSTORE PUSH1 0x20 PUSH0 KECCAK256 SWAP1 JUMPDEST DUP2 SLOAD DUP2 MSTORE SWAP1 PUSH1 0x1 ADD SWAP1 PUSH1 0x20 ADD DUP1 DUP4 GT PUSH2 0x16FB JUMPI DUP3 SWAP1 SUB PUSH1 0x1F AND DUP3 ADD SWAP2 JUMPDEST POP POP POP POP POP SWAP1 POP PUSH0 PUSH2 0x1728 PUSH2 0x1C22 JUMP JUMPDEST SWAP1 POP PUSH0 DUP2 MLOAD SUB PUSH2 0x173C JUMPI DUP2 SWAP3 POP POP POP PUSH2 0x177E JUMP JUMPDEST PUSH0 DUP3 MLOAD GT ISZERO PUSH2 0x1770 JUMPI DUP1 DUP3 PUSH1 0x40 MLOAD PUSH1 0x20 ADD PUSH2 0x1758 SWAP3 SWAP2 SWAP1 PUSH2 0x2FD3 JUMP JUMPDEST PUSH1 0x40 MLOAD PUSH1 0x20 DUP2 DUP4 SUB SUB DUP2 MSTORE SWAP1 PUSH1 0x40 MSTORE SWAP3 POP POP POP PUSH2 0x177E JUMP JUMPDEST PUSH2 0x1779 DUP5 PUSH2 0x1C42 JUMP JUMPDEST SWAP3 POP POP POP JUMPDEST SWAP2 SWAP1 POP JUMP JUMPDEST PUSH0 PUSH32 0x780E9D6300000000000000000000000000000000000000000000000000000000 PUSH28 0xFFFFFFFFFFFFFFFFFFFFFFFFFFFFFFFFFFFFFFFFFFFFFFFFFFFFFFFF NOT AND DUP3 PUSH28 0xFFFFFFFFFFFFFFFFFFFFFFFFFFFFFFFFFFFFFFFFFFFFFFFFFFFFFFFF NOT AND EQ DUP1 PUSH2 0x17F5 JUMPI POP PUSH2 0x17F4 DUP3 PUSH2 0x1CA8 JUMP JUMPDEST JUMPDEST SWAP1 POP SWAP2 SWAP1 POP JUMP JUMPDEST PUSH0 PUSH1 0x2 PUSH0 DUP4 DUP2 MSTORE PUSH1 0x20 ADD SWAP1 DUP2 MSTORE PUSH1 0x20 ADD PUSH0 KECCAK256 PUSH0 SWAP1 SLOAD SWAP1 PUSH2 0x100 EXP SWAP1 DIV PUSH20 0xFFFFFFFFFFFFFFFFFFFFFFFFFFFFFFFFFFFFFFFF AND SWAP1 POP SWAP2 SWAP1 POP JUMP JUMPDEST DUP1 DUP1 PUSH2 0x186D JUMPI POP PUSH0 PUSH20 0xFFFFFFFFFFFFFFFFFFFFFFFFFFFFFFFFFFFFFFFF AND DUP3 PUSH20 0xFFFFFFFFFFFFFFFFFFFFFFFFFFFFFFFFFFFFFFFF AND EQ ISZERO JUMPDEST ISZERO PUSH2 0x199F JUMPI PUSH0 PUSH2 0x187C DUP5 PUSH2 0x1095 JUMP JUMPDEST SWAP1 POP PUSH0 PUSH20 0xFFFFFFFFFFFFFFFFFFFFFFFFFFFFFFFFFFFFFFFF AND DUP4 PUSH20 0xFFFFFFFFFFFFFFFFFFFFFFFFFFFFFFFFFFFFFFFF AND EQ ISZERO DUP1 ISZERO PUSH2 0x18E6 JUMPI POP DUP3 PUSH20 0xFFFFFFFFFFFFFFFFFFFFFFFFFFFFFFFFFFFFFFFF AND DUP2 PUSH20 0xFFFFFFFFFFFFFFFFFFFFFFFFFFFFFFFFFFFFFFFF AND EQ ISZERO JUMPDEST DUP1 ISZERO PUSH2 0x18F9 JUMPI POP PUSH2 0x18F7 DUP2 DUP5 PUSH2 0xF23 JUMP JUMPDEST ISZERO JUMPDEST ISZERO PUSH2 0x193B JUMPI DUP3 PUSH1 0x40 MLOAD PUSH32 0xA9FBF51F00000000000000000000000000000000000000000000000000000000 DUP2 MSTORE PUSH1 0x4 ADD PUSH2 0x1932 SWAP2 SWAP1 PUSH2 0x2474 JUMP JUMPDEST PUSH1 0x40 MLOAD DUP1 SWAP2 SUB SWAP1 REVERT JUMPDEST DUP2 ISZERO PUSH2 0x199D JUMPI DUP4 DUP6 PUSH20 0xFFFFFFFFFFFFFFFFFFFFFFFFFFFFFFFFFFFFFFFF AND DUP3 PUSH20 0xFFFFFFFFFFFFFFFFFFFFFFFFFFFFFFFFFFFFFFFF AND PUSH32 0x8C5BE1E5EBEC7D5BD14F71427D1E84F3DD0314C0F7B2291E5B200AC8C7C3B925 PUSH1 0x40 MLOAD PUSH1 0x40 MLOAD DUP1 SWAP2 SUB SWAP1 LOG4 JUMPDEST POP JUMPDEST DUP4 PUSH1 0x4 PUSH0 DUP6 DUP2 MSTORE PUSH1 0x20 ADD SWAP1 DUP2 MSTORE PUSH1 0x20 ADD PUSH0 KECCAK256 PUSH0 PUSH2 0x100 EXP DUP2 SLOAD DUP2 PUSH20 0xFFFFFFFFFFFFFFFFFFFFFFFFFFFFFFFFFFFFFFFF MUL NOT AND SWAP1 DUP4 PUSH20 0xFFFFFFFFFFFFFFFFFFFFFFFFFFFFFFFFFFFFFFFF AND MUL OR SWAP1 SSTORE POP POP POP POP POP JUMP JUMPDEST PUSH0 DUP1 PUSH2 0x19FF DUP5 PUSH2 0x17FC JUMP JUMPDEST SWAP1 POP PUSH0 PUSH20 0xFFFFFFFFFFFFFFFFFFFFFFFFFFFFFFFFFFFFFFFF AND DUP4 PUSH20 0xFFFFFFFFFFFFFFFFFFFFFFFFFFFFFFFFFFFFFFFF AND EQ PUSH2 0x1A40 JUMPI PUSH2 0x1A3F DUP2 DUP5 DUP7 PUSH2 0x1D89 JUMP JUMPDEST JUMPDEST PUSH0 PUSH20 0xFFFFFFFFFFFFFFFFFFFFFFFFFFFFFFFFFFFFFFFF AND DUP2 PUSH20 0xFFFFFFFFFFFFFFFFFFFFFFFFFFFFFFFFFFFFFFFF AND EQ PUSH2 0x1ACB JUMPI PUSH2 0x1A7F PUSH0 DUP6 PUSH0 DUP1 PUSH2 0x1835 JUMP JUMPDEST PUSH1 0x1 PUSH1 0x3 PUSH0 DUP4 PUSH20 0xFFFFFFFFFFFFFFFFFFFFFFFFFFFFFFFFFFFFFFFF AND PUSH20 0xFFFFFFFFFFFFFFFFFFFFFFFFFFFFFFFFFFFFFFFF AND DUP2 MSTORE PUSH1 0x20 ADD SWAP1 DUP2 MSTORE PUSH1 0x20 ADD PUSH0 KECCAK256 PUSH0 DUP3 DUP3 SLOAD SUB SWAP3 POP POP DUP2 SWAP1 SSTORE POP JUMPDEST PUSH0 PUSH20 0xFFFFFFFFFFFFFFFFFFFFFFFFFFFFFFFFFFFFFFFF AND DUP6 PUSH20 0xFFFFFFFFFFFFFFFFFFFFFFFFFFFFFFFFFFFFFFFF AND EQ PUSH2 0x1B4A JUMPI PUSH1 0x1 PUSH1 0x3 PUSH0 DUP8 PUSH20 0xFFFFFFFFFFFFFFFFFFFFFFFFFFFFFFFFFFFFFFFF AND PUSH20 0xFFFFFFFFFFFFFFFFFFFFFFFFFFFFFFFFFFFFFFFF AND DUP2 MSTORE PUSH1 0x20 ADD SWAP1 DUP2 MSTORE PUSH1 0x20 ADD PUSH0 KECCAK256 PUSH0 DUP3 DUP3 SLOAD ADD SWAP3 POP POP DUP2 SWAP1 SSTORE POP JUMPDEST DUP5 PUSH1 0x2 PUSH0 DUP7 DUP2 MSTORE PUSH1 0x20 ADD SWAP1 DUP2 MSTORE PUSH1 0x20 ADD PUSH0 KECCAK256 PUSH0 PUSH2 0x100 EXP DUP2 SLOAD DUP2 PUSH20 0xFFFFFFFFFFFFFFFFFFFFFFFFFFFFFFFFFFFFFFFF MUL NOT AND SWAP1 DUP4 PUSH20 0xFFFFFFFFFFFFFFFFFFFFFFFFFFFFFFFFFFFFFFFF AND MUL OR SWAP1 SSTORE POP DUP4 DUP6 PUSH20 0xFFFFFFFFFFFFFFFFFFFFFFFFFFFFFFFFFFFFFFFF AND DUP3 PUSH20 0xFFFFFFFFFFFFFFFFFFFFFFFFFFFFFFFFFFFFFFFF AND PUSH32 0xDDF252AD1BE2C89B69C2B068FC378DAA952BA7F163C4A11628F55A4DF523B3EF PUSH1 0x40 MLOAD PUSH1 0x40 MLOAD DUP1 SWAP2 SUB SWAP1 LOG4 DUP1 SWAP2 POP POP SWAP4 SWAP3 POP POP POP JUMP JUMPDEST PUSH2 0x1C09 DUP4 DUP4 PUSH2 0x1E4C JUMP JUMPDEST PUSH2 0x1C1D PUSH2 0x1C14 PUSH2 0x1154 JUMP JUMPDEST PUSH0 DUP6 DUP6 DUP6 PUSH2 0x14CC JUMP JUMPDEST POP POP POP JUMP JUMPDEST PUSH1 0x60 PUSH1 0x40 MLOAD DUP1 PUSH1 0x60 ADD PUSH1 0x40 MSTORE DUP1 PUSH1 0x38 DUP2 MSTORE PUSH1 0x20 ADD PUSH2 0x3024 PUSH1 0x38 SWAP2 CODECOPY SWAP1 POP SWAP1 JUMP JUMPDEST PUSH1 0x60 PUSH2 0x1C4D DUP3 PUSH2 0x1095 JUMP JUMPDEST POP PUSH0 PUSH2 0x1C57 PUSH2 0x1C22 JUMP JUMPDEST SWAP1 POP PUSH0 DUP2 MLOAD GT PUSH2 0x1C75 JUMPI PUSH1 0x40 MLOAD DUP1 PUSH1 0x20 ADD PUSH1 0x40 MSTORE DUP1 PUSH0 DUP2 MSTORE POP PUSH2 0x1CA0 JUMP JUMPDEST DUP1 PUSH2 0x1C7F DUP5 PUSH2 0x1F3F JUMP JUMPDEST PUSH1 0x40 MLOAD PUSH1 0x20 ADD PUSH2 0x1C90 SWAP3 SWAP2 SWAP1 PUSH2 0x2FD3 JUMP JUMPDEST PUSH1 0x40 MLOAD PUSH1 0x20 DUP2 DUP4 SUB SUB DUP2 MSTORE SWAP1 PUSH1 0x40 MSTORE JUMPDEST SWAP2 POP POP SWAP2 SWAP1 POP JUMP JUMPDEST PUSH0 PUSH32 0x80AC58CD00000000000000000000000000000000000000000000000000000000 PUSH28 0xFFFFFFFFFFFFFFFFFFFFFFFFFFFFFFFFFFFFFFFFFFFFFFFFFFFFFFFF NOT AND DUP3 PUSH28 0xFFFFFFFFFFFFFFFFFFFFFFFFFFFFFFFFFFFFFFFFFFFFFFFFFFFFFFFF NOT AND EQ DUP1 PUSH2 0x1D72 JUMPI POP PUSH32 0x5B5E139F00000000000000000000000000000000000000000000000000000000 PUSH28 0xFFFFFFFFFFFFFFFFFFFFFFFFFFFFFFFFFFFFFFFFFFFFFFFFFFFFFFFF NOT AND DUP3 PUSH28 0xFFFFFFFFFFFFFFFFFFFFFFFFFFFFFFFFFFFFFFFFFFFFFFFFFFFFFFFF NOT AND EQ JUMPDEST DUP1 PUSH2 0x1D82 JUMPI POP PUSH2 0x1D81 DUP3 PUSH2 0x2009 JUMP JUMPDEST JUMPDEST SWAP1 POP SWAP2 SWAP1 POP JUMP JUMPDEST PUSH2 0x1D94 DUP4 DUP4 DUP4 PUSH2 0x2072 JUMP JUMPDEST PUSH2 0x1E47 JUMPI PUSH0 PUSH20 0xFFFFFFFFFFFFFFFFFFFFFFFFFFFFFFFFFFFFFFFF AND DUP4 PUSH20 0xFFFFFFFFFFFFFFFFFFFFFFFFFFFFFFFFFFFFFFFF AND SUB PUSH2 0x1E08 JUMPI DUP1 PUSH1 0x40 MLOAD PUSH32 0x7E27328900000000000000000000000000000000000000000000000000000000 DUP2 MSTORE PUSH1 0x4 ADD PUSH2 0x1DFF SWAP2 SWAP1 PUSH2 0x2504 JUMP JUMPDEST PUSH1 0x40 MLOAD DUP1 SWAP2 SUB SWAP1 REVERT JUMPDEST DUP2 DUP2 PUSH1 0x40 MLOAD PUSH32 0x177E802F00000000000000000000000000000000000000000000000000000000 DUP2 MSTORE PUSH1 0x4 ADD PUSH2 0x1E3E SWAP3 SWAP2 SWAP1 PUSH2 0x2DF6 JUMP JUMPDEST PUSH1 0x40 MLOAD DUP1 SWAP2 SUB SWAP1 REVERT JUMPDEST POP POP POP JUMP JUMPDEST PUSH0 PUSH20 0xFFFFFFFFFFFFFFFFFFFFFFFFFFFFFFFFFFFFFFFF AND DUP3 PUSH20 0xFFFFFFFFFFFFFFFFFFFFFFFFFFFFFFFFFFFFFFFF AND SUB PUSH2 0x1EBC JUMPI PUSH0 PUSH1 0x40 MLOAD PUSH32 0x64A0AE9200000000000000000000000000000000000000000000000000000000 DUP2 MSTORE PUSH1 0x4 ADD PUSH2 0x1EB3 SWAP2 SWAP1 PUSH2 0x2474 JUMP JUMPDEST PUSH1 0x40 MLOAD DUP1 SWAP2 SUB SWAP1 REVERT JUMPDEST PUSH0 PUSH2 0x1EC8 DUP4 DUP4 PUSH0 PUSH2 0x116D JUMP JUMPDEST SWAP1 POP PUSH0 PUSH20 0xFFFFFFFFFFFFFFFFFFFFFFFFFFFFFFFFFFFFFFFF AND DUP2 PUSH20 0xFFFFFFFFFFFFFFFFFFFFFFFFFFFFFFFFFFFFFFFF AND EQ PUSH2 0x1F3A JUMPI PUSH0 PUSH1 0x40 MLOAD PUSH32 0x73C6AC6E00000000000000000000000000000000000000000000000000000000 DUP2 MSTORE PUSH1 0x4 ADD PUSH2 0x1F31 SWAP2 SWAP1 PUSH2 0x2474 JUMP JUMPDEST PUSH1 0x40 MLOAD DUP1 SWAP2 SUB SWAP1 REVERT JUMPDEST POP POP POP JUMP JUMPDEST PUSH1 0x60 PUSH0 PUSH1 0x1 PUSH2 0x1F4D DUP5 PUSH2 0x2132 JUMP JUMPDEST ADD SWAP1 POP PUSH0 DUP2 PUSH8 0xFFFFFFFFFFFFFFFF DUP2 GT ISZERO PUSH2 0x1F6B JUMPI PUSH2 0x1F6A PUSH2 0x2575 JUMP JUMPDEST JUMPDEST PUSH1 0x40 MLOAD SWAP1 DUP1 DUP3 MSTORE DUP1 PUSH1 0x1F ADD PUSH1 0x1F NOT AND PUSH1 0x20 ADD DUP3 ADD PUSH1 0x40 MSTORE DUP1 ISZERO PUSH2 0x1F9D JUMPI DUP2 PUSH1 0x20 ADD PUSH1 0x1 DUP3 MUL DUP1 CALLDATASIZE DUP4 CALLDATACOPY DUP1 DUP3 ADD SWAP2 POP POP SWAP1 POP JUMPDEST POP SWAP1 POP PUSH0 DUP3 PUSH1 0x20 ADD DUP3 ADD SWAP1 POP JUMPDEST PUSH1 0x1 ISZERO PUSH2 0x1FFE JUMPI DUP1 DUP1 PUSH1 0x1 SWAP1 SUB SWAP2 POP POP PUSH32 0x3031323334353637383961626364656600000000000000000000000000000000 PUSH1 0xA DUP7 MOD BYTE DUP2 MSTORE8 PUSH1 0xA DUP6 DUP2 PUSH2 0x1FF3 JUMPI PUSH2 0x1FF2 PUSH2 0x2FF6 JUMP JUMPDEST JUMPDEST DIV SWAP5 POP PUSH0 DUP6 SUB PUSH2 0x1FAA JUMPI JUMPDEST DUP2 SWAP4 POP POP POP POP SWAP2 SWAP1 POP JUMP JUMPDEST PUSH0 PUSH32 0x1FFC9A700000000000000000000000000000000000000000000000000000000 PUSH28 0xFFFFFFFFFFFFFFFFFFFFFFFFFFFFFFFFFFFFFFFFFFFFFFFFFFFFFFFF NOT AND DUP3 PUSH28 0xFFFFFFFFFFFFFFFFFFFFFFFFFFFFFFFFFFFFFFFFFFFFFFFFFFFFFFFF NOT AND EQ SWAP1 POP SWAP2 SWAP1 POP JUMP JUMPDEST PUSH0 DUP1 PUSH20 0xFFFFFFFFFFFFFFFFFFFFFFFFFFFFFFFFFFFFFFFF AND DUP4 PUSH20 0xFFFFFFFFFFFFFFFFFFFFFFFFFFFFFFFFFFFFFFFF AND EQ ISZERO DUP1 ISZERO PUSH2 0x2129 JUMPI POP DUP3 PUSH20 0xFFFFFFFFFFFFFFFFFFFFFFFFFFFFFFFFFFFFFFFF AND DUP5 PUSH20 0xFFFFFFFFFFFFFFFFFFFFFFFFFFFFFFFFFFFFFFFF AND EQ DUP1 PUSH2 0x20EA JUMPI POP PUSH2 0x20E9 DUP5 DUP5 PUSH2 0xF23 JUMP JUMPDEST JUMPDEST DUP1 PUSH2 0x2128 JUMPI POP DUP3 PUSH20 0xFFFFFFFFFFFFFFFFFFFFFFFFFFFFFFFFFFFFFFFF AND PUSH2 0x2110 DUP4 PUSH2 0x111B JUMP JUMPDEST PUSH20 0xFFFFFFFFFFFFFFFFFFFFFFFFFFFFFFFFFFFFFFFF AND EQ JUMPDEST JUMPDEST SWAP1 POP SWAP4 SWAP3 POP POP POP JUMP JUMPDEST PUSH0 DUP1 PUSH0 SWAP1 POP PUSH27 0x184F03E93FF9F4DAA797ED6E38ED64BF6A1F010000000000000000 DUP4 LT PUSH2 0x218E JUMPI PUSH27 0x184F03E93FF9F4DAA797ED6E38ED64BF6A1F010000000000000000 DUP4 DUP2 PUSH2 0x2184 JUMPI PUSH2 0x2183 PUSH2 0x2FF6 JUMP JUMPDEST JUMPDEST DIV SWAP3 POP PUSH1 0x40 DUP2 ADD SWAP1 POP JUMPDEST PUSH14 0x4EE2D6D415B85ACEF8100000000 DUP4 LT PUSH2 0x21CB JUMPI PUSH14 0x4EE2D6D415B85ACEF8100000000 DUP4 DUP2 PUSH2 0x21C1 JUMPI PUSH2 0x21C0 PUSH2 0x2FF6 JUMP JUMPDEST JUMPDEST DIV SWAP3 POP PUSH1 0x20 DUP2 ADD SWAP1 POP JUMPDEST PUSH7 0x2386F26FC10000 DUP4 LT PUSH2 0x21FA JUMPI PUSH7 0x2386F26FC10000 DUP4 DUP2 PUSH2 0x21F0 JUMPI PUSH2 0x21EF PUSH2 0x2FF6 JUMP JUMPDEST JUMPDEST DIV SWAP3 POP PUSH1 0x10 DUP2 ADD SWAP1 POP JUMPDEST PUSH4 0x5F5E100 DUP4 LT PUSH2 0x2223 JUMPI PUSH4 0x5F5E100 DUP4 DUP2 PUSH2 0x2219 JUMPI PUSH2 0x2218 PUSH2 0x2FF6 JUMP JUMPDEST JUMPDEST DIV SWAP3 POP PUSH1 0x8 DUP2 ADD SWAP1 POP JUMPDEST PUSH2 0x2710 DUP4 LT PUSH2 0x2248 JUMPI PUSH2 0x2710 DUP4 DUP2 PUSH2 0x223E JUMPI PUSH2 0x223D PUSH2 0x2FF6 JUMP JUMPDEST JUMPDEST DIV SWAP3 POP PUSH1 0x4 DUP2 ADD SWAP1 POP JUMPDEST PUSH1 0x64 DUP4 LT PUSH2 0x226B JUMPI PUSH1 0x64 DUP4 DUP2 PUSH2 0x2261 JUMPI PUSH2 0x2260 PUSH2 0x2FF6 JUMP JUMPDEST JUMPDEST DIV SWAP3 POP PUSH1 0x2 DUP2 ADD SWAP1 POP JUMPDEST PUSH1 0xA DUP4 LT PUSH2 0x227A JUMPI PUSH1 0x1 DUP2 ADD SWAP1 POP JUMPDEST DUP1 SWAP2 POP POP SWAP2 SWAP1 POP JUMP JUMPDEST PUSH0 PUSH1 0x40 MLOAD SWAP1 POP SWAP1 JUMP JUMPDEST PUSH0 DUP1 REVERT JUMPDEST PUSH0 DUP1 REVERT JUMPDEST PUSH0 PUSH32 0xFFFFFFFF00000000000000000000000000000000000000000000000000000000 DUP3 AND SWAP1 POP SWAP2 SWAP1 POP JUMP JUMPDEST PUSH2 0x22C8 DUP2 PUSH2 0x2294 JUMP JUMPDEST DUP2 EQ PUSH2 0x22D2 JUMPI PUSH0 DUP1 REVERT JUMPDEST POP JUMP JUMPDEST PUSH0 DUP2 CALLDATALOAD SWAP1 POP PUSH2 0x22E3 DUP2 PUSH2 0x22BF JUMP JUMPDEST SWAP3 SWAP2 POP POP JUMP JUMPDEST PUSH0 PUSH1 0x20 DUP3 DUP5 SUB SLT ISZERO PUSH2 0x22FE JUMPI PUSH2 0x22FD PUSH2 0x228C JUMP JUMPDEST JUMPDEST PUSH0 PUSH2 0x230B DUP5 DUP3 DUP6 ADD PUSH2 0x22D5 JUMP JUMPDEST SWAP2 POP POP SWAP3 SWAP2 POP POP JUMP JUMPDEST PUSH0 DUP2 ISZERO ISZERO SWAP1 POP SWAP2 SWAP1 POP JUMP JUMPDEST PUSH2 0x2328 DUP2 PUSH2 0x2314 JUMP JUMPDEST DUP3 MSTORE POP POP JUMP JUMPDEST PUSH0 PUSH1 0x20 DUP3 ADD SWAP1 POP PUSH2 0x2341 PUSH0 DUP4 ADD DUP5 PUSH2 0x231F JUMP JUMPDEST SWAP3 SWAP2 POP POP JUMP JUMPDEST PUSH0 DUP2 MLOAD SWAP1 POP SWAP2 SWAP1 POP JUMP JUMPDEST PUSH0 DUP3 DUP3 MSTORE PUSH1 0x20 DUP3 ADD SWAP1 POP SWAP3 SWAP2 POP POP JUMP JUMPDEST DUP3 DUP2 DUP4 MCOPY PUSH0 DUP4 DUP4 ADD MSTORE POP POP POP JUMP JUMPDEST PUSH0 PUSH1 0x1F NOT PUSH1 0x1F DUP4 ADD AND SWAP1 POP SWAP2 SWAP1 POP JUMP JUMPDEST PUSH0 PUSH2 0x2389 DUP3 PUSH2 0x2347 JUMP JUMPDEST PUSH2 0x2393 DUP2 DUP6 PUSH2 0x2351 JUMP JUMPDEST SWAP4 POP PUSH2 0x23A3 DUP2 DUP6 PUSH1 0x20 DUP7 ADD PUSH2 0x2361 JUMP JUMPDEST PUSH2 0x23AC DUP2 PUSH2 0x236F JUMP JUMPDEST DUP5 ADD SWAP2 POP POP SWAP3 SWAP2 POP POP JUMP JUMPDEST PUSH0 PUSH1 0x20 DUP3 ADD SWAP1 POP DUP2 DUP2 SUB PUSH0 DUP4 ADD MSTORE PUSH2 0x23CF DUP2 DUP5 PUSH2 0x237F JUMP JUMPDEST SWAP1 POP SWAP3 SWAP2 POP POP JUMP JUMPDEST PUSH0 DUP2 SWAP1 POP SWAP2 SWAP1 POP JUMP JUMPDEST PUSH2 0x23E9 DUP2 PUSH2 0x23D7 JUMP JUMPDEST DUP2 EQ PUSH2 0x23F3 JUMPI PUSH0 DUP1 REVERT JUMPDEST POP JUMP JUMPDEST PUSH0 DUP2 CALLDATALOAD SWAP1 POP PUSH2 0x2404 DUP2 PUSH2 0x23E0 JUMP JUMPDEST SWAP3 SWAP2 POP POP JUMP JUMPDEST PUSH0 PUSH1 0x20 DUP3 DUP5 SUB SLT ISZERO PUSH2 0x241F JUMPI PUSH2 0x241E PUSH2 0x228C JUMP JUMPDEST JUMPDEST PUSH0 PUSH2 0x242C DUP5 DUP3 DUP6 ADD PUSH2 0x23F6 JUMP JUMPDEST SWAP2 POP POP SWAP3 SWAP2 POP POP JUMP JUMPDEST PUSH0 PUSH20 0xFFFFFFFFFFFFFFFFFFFFFFFFFFFFFFFFFFFFFFFF DUP3 AND SWAP1 POP SWAP2 SWAP1 POP JUMP JUMPDEST PUSH0 PUSH2 0x245E DUP3 PUSH2 0x2435 JUMP JUMPDEST SWAP1 POP SWAP2 SWAP1 POP JUMP JUMPDEST PUSH2 0x246E DUP2 PUSH2 0x2454 JUMP JUMPDEST DUP3 MSTORE POP POP JUMP JUMPDEST PUSH0 PUSH1 0x20 DUP3 ADD SWAP1 POP PUSH2 0x2487 PUSH0 DUP4 ADD DUP5 PUSH2 0x2465 JUMP JUMPDEST SWAP3 SWAP2 POP POP JUMP JUMPDEST PUSH2 0x2496 DUP2 PUSH2 0x2454 JUMP JUMPDEST DUP2 EQ PUSH2 0x24A0 JUMPI PUSH0 DUP1 REVERT JUMPDEST POP JUMP JUMPDEST PUSH0 DUP2 CALLDATALOAD SWAP1 POP PUSH2 0x24B1 DUP2 PUSH2 0x248D JUMP JUMPDEST SWAP3 SWAP2 POP POP JUMP JUMPDEST PUSH0 DUP1 PUSH1 0x40 DUP4 DUP6 SUB SLT ISZERO PUSH2 0x24CD JUMPI PUSH2 0x24CC PUSH2 0x228C JUMP JUMPDEST JUMPDEST PUSH0 PUSH2 0x24DA DUP6 DUP3 DUP7 ADD PUSH2 0x24A3 JUMP JUMPDEST SWAP3 POP POP PUSH1 0x20 PUSH2 0x24EB DUP6 DUP3 DUP7 ADD PUSH2 0x23F6 JUMP JUMPDEST SWAP2 POP POP SWAP3 POP SWAP3 SWAP1 POP JUMP JUMPDEST PUSH2 0x24FE DUP2 PUSH2 0x23D7 JUMP JUMPDEST DUP3 MSTORE POP POP JUMP JUMPDEST PUSH0 PUSH1 0x20 DUP3 ADD SWAP1 POP PUSH2 0x2517 PUSH0 DUP4 ADD DUP5 PUSH2 0x24F5 JUMP JUMPDEST SWAP3 SWAP2 POP POP JUMP JUMPDEST PUSH0 DUP1 PUSH0 PUSH1 0x60 DUP5 DUP7 SUB SLT ISZERO PUSH2 0x2534 JUMPI PUSH2 0x2533 PUSH2 0x228C JUMP JUMPDEST JUMPDEST PUSH0 PUSH2 0x2541 DUP7 DUP3 DUP8 ADD PUSH2 0x24A3 JUMP JUMPDEST SWAP4 POP POP PUSH1 0x20 PUSH2 0x2552 DUP7 DUP3 DUP8 ADD PUSH2 0x24A3 JUMP JUMPDEST SWAP3 POP POP PUSH1 0x40 PUSH2 0x2563 DUP7 DUP3 DUP8 ADD PUSH2 0x23F6 JUMP JUMPDEST SWAP2 POP POP SWAP3 POP SWAP3 POP SWAP3 JUMP JUMPDEST PUSH0 DUP1 REVERT JUMPDEST PUSH0 DUP1 REVERT JUMPDEST PUSH32 0x4E487B7100000000000000000000000000000000000000000000000000000000 PUSH0 MSTORE PUSH1 0x41 PUSH1 0x4 MSTORE PUSH1 0x24 PUSH0 REVERT JUMPDEST PUSH2 0x25AB DUP3 PUSH2 0x236F JUMP JUMPDEST DUP2 ADD DUP2 DUP2 LT PUSH8 0xFFFFFFFFFFFFFFFF DUP3 GT OR ISZERO PUSH2 0x25CA JUMPI PUSH2 0x25C9 PUSH2 0x2575 JUMP JUMPDEST JUMPDEST DUP1 PUSH1 0x40 MSTORE POP POP POP JUMP JUMPDEST PUSH0 PUSH2 0x25DC PUSH2 0x2283 JUMP JUMPDEST SWAP1 POP PUSH2 0x25E8 DUP3 DUP3 PUSH2 0x25A2 JUMP JUMPDEST SWAP2 SWAP1 POP JUMP JUMPDEST PUSH0 PUSH8 0xFFFFFFFFFFFFFFFF DUP3 GT ISZERO PUSH2 0x2607 JUMPI PUSH2 0x2606 PUSH2 0x2575 JUMP JUMPDEST JUMPDEST PUSH2 0x2610 DUP3 PUSH2 0x236F JUMP JUMPDEST SWAP1 POP PUSH1 0x20 DUP2 ADD SWAP1 POP SWAP2 SWAP1 POP JUMP JUMPDEST DUP3 DUP2 DUP4 CALLDATACOPY PUSH0 DUP4 DUP4 ADD MSTORE POP POP POP JUMP JUMPDEST PUSH0 PUSH2 0x263D PUSH2 0x2638 DUP5 PUSH2 0x25ED JUMP JUMPDEST PUSH2 0x25D3 JUMP JUMPDEST SWAP1 POP DUP3 DUP2 MSTORE PUSH1 0x20 DUP2 ADD DUP5 DUP5 DUP5 ADD GT ISZERO PUSH2 0x2659 JUMPI PUSH2 0x2658 PUSH2 0x2571 JUMP JUMPDEST JUMPDEST PUSH2 0x2664 DUP5 DUP3 DUP6 PUSH2 0x261D JUMP JUMPDEST POP SWAP4 SWAP3 POP POP POP JUMP JUMPDEST PUSH0 DUP3 PUSH1 0x1F DUP4 ADD SLT PUSH2 0x2680 JUMPI PUSH2 0x267F PUSH2 0x256D JUMP JUMPDEST JUMPDEST DUP2 CALLDATALOAD PUSH2 0x2690 DUP5 DUP3 PUSH1 0x20 DUP7 ADD PUSH2 0x262B JUMP JUMPDEST SWAP2 POP POP SWAP3 SWAP2 POP POP JUMP JUMPDEST PUSH0 DUP1 PUSH0 PUSH1 0x60 DUP5 DUP7 SUB SLT ISZERO PUSH2 0x26B0 JUMPI PUSH2 0x26AF PUSH2 0x228C JUMP JUMPDEST JUMPDEST PUSH0 PUSH2 0x26BD DUP7 DUP3 DUP8 ADD PUSH2 0x23F6 JUMP JUMPDEST SWAP4 POP POP PUSH1 0x20 DUP5 ADD CALLDATALOAD PUSH8 0xFFFFFFFFFFFFFFFF DUP2 GT ISZERO PUSH2 0x26DE JUMPI PUSH2 0x26DD PUSH2 0x2290 JUMP JUMPDEST JUMPDEST PUSH2 0x26EA DUP7 DUP3 DUP8 ADD PUSH2 0x266C JUMP JUMPDEST SWAP3 POP POP PUSH1 0x40 DUP5 ADD CALLDATALOAD PUSH8 0xFFFFFFFFFFFFFFFF DUP2 GT ISZERO PUSH2 0x270B JUMPI PUSH2 0x270A PUSH2 0x2290 JUMP JUMPDEST JUMPDEST PUSH2 0x2717 DUP7 DUP3 DUP8 ADD PUSH2 0x266C JUMP JUMPDEST SWAP2 POP POP SWAP3 POP SWAP3 POP SWAP3 JUMP JUMPDEST PUSH0 PUSH1 0xA0 DUP3 ADD SWAP1 POP PUSH2 0x2734 PUSH0 DUP4 ADD DUP9 PUSH2 0x24F5 JUMP JUMPDEST DUP2 DUP2 SUB PUSH1 0x20 DUP4 ADD MSTORE PUSH2 0x2746 DUP2 DUP8 PUSH2 0x237F JUMP JUMPDEST SWAP1 POP PUSH2 0x2755 PUSH1 0x40 DUP4 ADD DUP7 PUSH2 0x2465 JUMP JUMPDEST PUSH2 0x2762 PUSH1 0x60 DUP4 ADD DUP6 PUSH2 0x24F5 JUMP JUMPDEST DUP2 DUP2 SUB PUSH1 0x80 DUP4 ADD MSTORE PUSH2 0x2774 DUP2 DUP5 PUSH2 0x237F JUMP JUMPDEST SWAP1 POP SWAP7 SWAP6 POP POP POP POP POP POP JUMP JUMPDEST PUSH0 PUSH1 0x20 DUP3 DUP5 SUB SLT ISZERO PUSH2 0x2795 JUMPI PUSH2 0x2794 PUSH2 0x228C JUMP JUMPDEST JUMPDEST PUSH0 PUSH2 0x27A2 DUP5 DUP3 DUP6 ADD PUSH2 0x24A3 JUMP JUMPDEST SWAP2 POP POP SWAP3 SWAP2 POP POP JUMP JUMPDEST PUSH2 0x27B4 DUP2 PUSH2 0x2314 JUMP JUMPDEST DUP2 EQ PUSH2 0x27BE JUMPI PUSH0 DUP1 REVERT JUMPDEST POP JUMP JUMPDEST PUSH0 DUP2 CALLDATALOAD SWAP1 POP PUSH2 0x27CF DUP2 PUSH2 0x27AB JUMP JUMPDEST SWAP3 SWAP2 POP POP JUMP JUMPDEST PUSH0 DUP1 PUSH1 0x40 DUP4 DUP6 SUB SLT ISZERO PUSH2 0x27EB JUMPI PUSH2 0x27EA PUSH2 0x228C JUMP JUMPDEST JUMPDEST PUSH0 PUSH2 0x27F8 DUP6 DUP3 DUP7 ADD PUSH2 0x24A3 JUMP JUMPDEST SWAP3 POP POP PUSH1 0x20 PUSH2 0x2809 DUP6 DUP3 DUP7 ADD PUSH2 0x27C1 JUMP JUMPDEST SWAP2 POP POP SWAP3 POP SWAP3 SWAP1 POP JUMP JUMPDEST PUSH0 DUP2 MLOAD SWAP1 POP SWAP2 SWAP1 POP JUMP JUMPDEST PUSH0 DUP3 DUP3 MSTORE PUSH1 0x20 DUP3 ADD SWAP1 POP SWAP3 SWAP2 POP POP JUMP JUMPDEST PUSH0 DUP2 SWAP1 POP PUSH1 0x20 DUP3 ADD SWAP1 POP SWAP2 SWAP1 POP JUMP JUMPDEST PUSH2 0x2845 DUP2 PUSH2 0x23D7 JUMP JUMPDEST DUP3 MSTORE POP POP JUMP JUMPDEST PUSH0 PUSH2 0x2856 DUP4 DUP4 PUSH2 0x283C JUMP JUMPDEST PUSH1 0x20 DUP4 ADD SWAP1 POP SWAP3 SWAP2 POP POP JUMP JUMPDEST PUSH0 PUSH1 0x20 DUP3 ADD SWAP1 POP SWAP2 SWAP1 POP JUMP JUMPDEST PUSH0 PUSH2 0x2878 DUP3 PUSH2 0x2813 JUMP JUMPDEST PUSH2 0x2882 DUP2 DUP6 PUSH2 0x281D JUMP JUMPDEST SWAP4 POP PUSH2 0x288D DUP4 PUSH2 0x282D JUMP JUMPDEST DUP1 PUSH0 JUMPDEST DUP4 DUP2 LT ISZERO PUSH2 0x28BD JUMPI DUP2 MLOAD PUSH2 0x28A4 DUP9 DUP3 PUSH2 0x284B JUMP JUMPDEST SWAP8 POP PUSH2 0x28AF DUP4 PUSH2 0x2862 JUMP JUMPDEST SWAP3 POP POP PUSH1 0x1 DUP2 ADD SWAP1 POP PUSH2 0x2890 JUMP JUMPDEST POP DUP6 SWAP4 POP POP POP POP SWAP3 SWAP2 POP POP JUMP JUMPDEST PUSH0 PUSH1 0x20 DUP3 ADD SWAP1 POP DUP2 DUP2 SUB PUSH0 DUP4 ADD MSTORE PUSH2 0x28E2 DUP2 DUP5 PUSH2 0x286E JUMP JUMPDEST SWAP1 POP SWAP3 SWAP2 POP POP JUMP JUMPDEST PUSH0 PUSH8 0xFFFFFFFFFFFFFFFF DUP3 GT ISZERO PUSH2 0x2904 JUMPI PUSH2 0x2903 PUSH2 0x2575 JUMP JUMPDEST JUMPDEST PUSH2 0x290D DUP3 PUSH2 0x236F JUMP JUMPDEST SWAP1 POP PUSH1 0x20 DUP2 ADD SWAP1 POP SWAP2 SWAP1 POP JUMP JUMPDEST PUSH0 PUSH2 0x292C PUSH2 0x2927 DUP5 PUSH2 0x28EA JUMP JUMPDEST PUSH2 0x25D3 JUMP JUMPDEST SWAP1 POP DUP3 DUP2 MSTORE PUSH1 0x20 DUP2 ADD DUP5 DUP5 DUP5 ADD GT ISZERO PUSH2 0x2948 JUMPI PUSH2 0x2947 PUSH2 0x2571 JUMP JUMPDEST JUMPDEST PUSH2 0x2953 DUP5 DUP3 DUP6 PUSH2 0x261D JUMP JUMPDEST POP SWAP4 SWAP3 POP POP POP JUMP JUMPDEST PUSH0 DUP3 PUSH1 0x1F DUP4 ADD SLT PUSH2 0x296F JUMPI PUSH2 0x296E PUSH2 0x256D JUMP JUMPDEST JUMPDEST DUP2 CALLDATALOAD PUSH2 0x297F DUP5 DUP3 PUSH1 0x20 DUP7 ADD PUSH2 0x291A JUMP JUMPDEST SWAP2 POP POP SWAP3 SWAP2 POP POP JUMP JUMPDEST PUSH0 DUP1 PUSH0 DUP1 PUSH1 0x80 DUP6 DUP8 SUB SLT ISZERO PUSH2 0x29A0 JUMPI PUSH2 0x299F PUSH2 0x228C JUMP JUMPDEST JUMPDEST PUSH0 PUSH2 0x29AD DUP8 DUP3 DUP9 ADD PUSH2 0x24A3 JUMP JUMPDEST SWAP5 POP POP PUSH1 0x20 PUSH2 0x29BE DUP8 DUP3 DUP9 ADD PUSH2 0x24A3 JUMP JUMPDEST SWAP4 POP POP PUSH1 0x40 PUSH2 0x29CF DUP8 DUP3 DUP9 ADD PUSH2 0x23F6 JUMP JUMPDEST SWAP3 POP POP PUSH1 0x60 DUP6 ADD CALLDATALOAD PUSH8 0xFFFFFFFFFFFFFFFF DUP2 GT ISZERO PUSH2 0x29F0 JUMPI PUSH2 0x29EF PUSH2 0x2290 JUMP JUMPDEST JUMPDEST PUSH2 0x29FC DUP8 DUP3 DUP9 ADD PUSH2 0x295B JUMP JUMPDEST SWAP2 POP POP SWAP3 SWAP6 SWAP2 SWAP5 POP SWAP3 POP JUMP JUMPDEST PUSH0 DUP1 PUSH1 0x40 DUP4 DUP6 SUB SLT ISZERO PUSH2 0x2A1E JUMPI PUSH2 0x2A1D PUSH2 0x228C JUMP JUMPDEST JUMPDEST PUSH0 PUSH2 0x2A2B DUP6 DUP3 DUP7 ADD PUSH2 0x24A3 JUMP JUMPDEST SWAP3 POP POP PUSH1 0x20 PUSH2 0x2A3C DUP6 DUP3 DUP7 ADD PUSH2 0x24A3 JUMP JUMPDEST SWAP2 POP POP SWAP3 POP SWAP3 SWAP1 POP JUMP JUMPDEST PUSH32 0x4E487B7100000000000000000000000000000000000000000000000000000000 PUSH0 MSTORE PUSH1 0x22 PUSH1 0x4 MSTORE PUSH1 0x24 PUSH0 REVERT JUMPDEST PUSH0 PUSH1 0x2 DUP3 DIV SWAP1 POP PUSH1 0x1 DUP3 AND DUP1 PUSH2 0x2A8A JUMPI PUSH1 0x7F DUP3 AND SWAP2 POP JUMPDEST PUSH1 0x20 DUP3 LT DUP2 SUB PUSH2 0x2A9D JUMPI PUSH2 0x2A9C PUSH2 0x2A46 JUMP JUMPDEST JUMPDEST POP SWAP2 SWAP1 POP JUMP JUMPDEST PUSH0 PUSH1 0x60 DUP3 ADD SWAP1 POP PUSH2 0x2AB6 PUSH0 DUP4 ADD DUP7 PUSH2 0x2465 JUMP JUMPDEST PUSH2 0x2AC3 PUSH1 0x20 DUP4 ADD DUP6 PUSH2 0x24F5 JUMP JUMPDEST PUSH2 0x2AD0 PUSH1 0x40 DUP4 ADD DUP5 PUSH2 0x2465 JUMP JUMPDEST SWAP5 SWAP4 POP POP POP POP JUMP JUMPDEST PUSH32 0x436572746966696361746520616C726561647920697373756564000000000000 PUSH0 DUP3 ADD MSTORE POP JUMP JUMPDEST PUSH0 PUSH2 0x2B0C PUSH1 0x1A DUP4 PUSH2 0x2351 JUMP JUMPDEST SWAP2 POP PUSH2 0x2B17 DUP3 PUSH2 0x2AD8 JUMP JUMPDEST PUSH1 0x20 DUP3 ADD SWAP1 POP SWAP2 SWAP1 POP JUMP JUMPDEST PUSH0 PUSH1 0x20 DUP3 ADD SWAP1 POP DUP2 DUP2 SUB PUSH0 DUP4 ADD MSTORE PUSH2 0x2B39 DUP2 PUSH2 0x2B00 JUMP JUMPDEST SWAP1 POP SWAP2 SWAP1 POP JUMP JUMPDEST PUSH0 DUP2 SWAP1 POP DUP2 PUSH0 MSTORE PUSH1 0x20 PUSH0 KECCAK256 SWAP1 POP SWAP2 SWAP1 POP JUMP JUMPDEST PUSH0 PUSH1 0x20 PUSH1 0x1F DUP4 ADD DIV SWAP1 POP SWAP2 SWAP1 POP JUMP JUMPDEST PUSH0 DUP3 DUP3 SHL SWAP1 POP SWAP3 SWAP2 POP POP JUMP JUMPDEST PUSH0 PUSH1 0x8 DUP4 MUL PUSH2 0x2B9C PUSH32 0xFFFFFFFFFFFFFFFFFFFFFFFFFFFFFFFFFFFFFFFFFFFFFFFFFFFFFFFFFFFFFFFF DUP3 PUSH2 0x2B61 JUMP JUMPDEST PUSH2 0x2BA6 DUP7 DUP4 PUSH2 0x2B61 JUMP JUMPDEST SWAP6 POP DUP1 NOT DUP5 AND SWAP4 POP DUP1 DUP7 AND DUP5 OR SWAP3 POP POP POP SWAP4 SWAP3 POP POP POP JUMP JUMPDEST PUSH0 DUP2 SWAP1 POP SWAP2 SWAP1 POP JUMP JUMPDEST PUSH0 PUSH2 0x2BE1 PUSH2 0x2BDC PUSH2 0x2BD7 DUP5 PUSH2 0x23D7 JUMP JUMPDEST PUSH2 0x2BBE JUMP JUMPDEST PUSH2 0x23D7 JUMP JUMPDEST SWAP1 POP SWAP2 SWAP1 POP JUMP JUMPDEST PUSH0 DUP2 SWAP1 POP SWAP2 SWAP1 POP JUMP JUMPDEST PUSH2 0x2BFA DUP4 PUSH2 0x2BC7 JUMP JUMPDEST PUSH2 0x2C0E PUSH2 0x2C06 DUP3 PUSH2 0x2BE8 JUMP JUMPDEST DUP5 DUP5 SLOAD PUSH2 0x2B6D JUMP JUMPDEST DUP3 SSTORE POP POP POP POP JUMP JUMPDEST PUSH0 SWAP1 JUMP JUMPDEST PUSH2 0x2C22 PUSH2 0x2C16 JUMP JUMPDEST PUSH2 0x2C2D DUP2 DUP5 DUP5 PUSH2 0x2BF1 JUMP JUMPDEST POP POP POP JUMP JUMPDEST JUMPDEST DUP2 DUP2 LT ISZERO PUSH2 0x2C50 JUMPI PUSH2 0x2C45 PUSH0 DUP3 PUSH2 0x2C1A JUMP JUMPDEST PUSH1 0x1 DUP2 ADD SWAP1 POP PUSH2 0x2C33 JUMP JUMPDEST POP POP JUMP JUMPDEST PUSH1 0x1F DUP3 GT ISZERO PUSH2 0x2C95 JUMPI PUSH2 0x2C66 DUP2 PUSH2 0x2B40 JUMP JUMPDEST PUSH2 0x2C6F DUP5 PUSH2 0x2B52 JUMP JUMPDEST DUP2 ADD PUSH1 0x20 DUP6 LT ISZERO PUSH2 0x2C7E JUMPI DUP2 SWAP1 POP JUMPDEST PUSH2 0x2C92 PUSH2 0x2C8A DUP6 PUSH2 0x2B52 JUMP JUMPDEST DUP4 ADD DUP3 PUSH2 0x2C32 JUMP JUMPDEST POP POP JUMPDEST POP POP POP JUMP JUMPDEST PUSH0 DUP3 DUP3 SHR SWAP1 POP SWAP3 SWAP2 POP POP JUMP JUMPDEST PUSH0 PUSH2 0x2CB5 PUSH0 NOT DUP5 PUSH1 0x8 MUL PUSH2 0x2C9A JUMP JUMPDEST NOT DUP1 DUP4 AND SWAP2 POP POP SWAP3 SWAP2 POP POP JUMP JUMPDEST PUSH0 PUSH2 0x2CCD DUP4 DUP4 PUSH2 0x2CA6 JUMP JUMPDEST SWAP2 POP DUP3 PUSH1 0x2 MUL DUP3 OR SWAP1 POP SWAP3 SWAP2 POP POP JUMP JUMPDEST PUSH2 0x2CE6 DUP3 PUSH2 0x2347 JUMP JUMPDEST PUSH8 0xFFFFFFFFFFFFFFFF DUP2 GT ISZERO PUSH2 0x2CFF JUMPI PUSH2 0x2CFE PUSH2 0x2575 JUMP JUMPDEST JUMPDEST PUSH2 0x2D09 DUP3 SLOAD PUSH2 0x2A73 JUMP JUMPDEST PUSH2 0x2D14 DUP3 DUP3 DUP6 PUSH2 0x2C54 JUMP JUMPDEST PUSH0 PUSH1 0x20 SWAP1 POP PUSH1 0x1F DUP4 GT PUSH1 0x1 DUP2 EQ PUSH2 0x2D45 JUMPI PUSH0 DUP5 ISZERO PUSH2 0x2D33 JUMPI DUP3 DUP8 ADD MLOAD SWAP1 POP JUMPDEST PUSH2 0x2D3D DUP6 DUP3 PUSH2 0x2CC2 JUMP JUMPDEST DUP7 SSTORE POP PUSH2 0x2DA4 JUMP JUMPDEST PUSH1 0x1F NOT DUP5 AND PUSH2 0x2D53 DUP7 PUSH2 0x2B40 JUMP JUMPDEST PUSH0 JUMPDEST DUP3 DUP2 LT ISZERO PUSH2 0x2D7A JUMPI DUP5 DUP10 ADD MLOAD DUP3 SSTORE PUSH1 0x1 DUP3 ADD SWAP2 POP PUSH1 0x20 DUP6 ADD SWAP5 POP PUSH1 0x20 DUP2 ADD SWAP1 POP PUSH2 0x2D55 JUMP JUMPDEST DUP7 DUP4 LT ISZERO PUSH2 0x2D97 JUMPI DUP5 DUP10 ADD MLOAD PUSH2 0x2D93 PUSH1 0x1F DUP10 AND DUP3 PUSH2 0x2CA6 JUMP JUMPDEST DUP4 SSTORE POP JUMPDEST PUSH1 0x1 PUSH1 0x2 DUP9 MUL ADD DUP9 SSTORE POP POP POP JUMPDEST POP POP POP POP POP POP JUMP JUMPDEST PUSH0 PUSH1 0x80 DUP3 ADD SWAP1 POP PUSH2 0x2DBF PUSH0 DUP4 ADD DUP8 PUSH2 0x24F5 JUMP JUMPDEST PUSH2 0x2DCC PUSH1 0x20 DUP4 ADD DUP7 PUSH2 0x2465 JUMP JUMPDEST PUSH2 0x2DD9 PUSH1 0x40 DUP4 ADD DUP6 PUSH2 0x24F5 JUMP JUMPDEST DUP2 DUP2 SUB PUSH1 0x60 DUP4 ADD MSTORE PUSH2 0x2DEB DUP2 DUP5 PUSH2 0x237F JUMP JUMPDEST SWAP1 POP SWAP6 SWAP5 POP POP POP POP POP JUMP JUMPDEST PUSH0 PUSH1 0x40 DUP3 ADD SWAP1 POP PUSH2 0x2E09 PUSH0 DUP4 ADD DUP6 PUSH2 0x2465 JUMP JUMPDEST PUSH2 0x2E16 PUSH1 0x20 DUP4 ADD DUP5 PUSH2 0x24F5 JUMP JUMPDEST SWAP4 SWAP3 POP POP POP JUMP JUMPDEST PUSH32 0x4E487B7100000000000000000000000000000000000000000000000000000000 PUSH0 MSTORE PUSH1 0x32 PUSH1 0x4 MSTORE PUSH1 0x24 PUSH0 REVERT JUMPDEST PUSH32 0x4E487B7100000000000000000000000000000000000000000000000000000000 PUSH0 MSTORE PUSH1 0x11 PUSH1 0x4 MSTORE PUSH1 0x24 PUSH0 REVERT JUMPDEST PUSH0 PUSH2 0x2E81 DUP3 PUSH2 0x23D7 JUMP JUMPDEST SWAP2 POP PUSH32 0xFFFFFFFFFFFFFFFFFFFFFFFFFFFFFFFFFFFFFFFFFFFFFFFFFFFFFFFFFFFFFFFF DUP3 SUB PUSH2 0x2EB3 JUMPI PUSH2 0x2EB2 PUSH2 0x2E4A JUMP JUMPDEST JUMPDEST PUSH1 0x1 DUP3 ADD SWAP1 POP SWAP2 SWAP1 POP JUMP JUMPDEST PUSH0 DUP2 MLOAD SWAP1 POP SWAP2 SWAP1 POP JUMP JUMPDEST PUSH0 DUP3 DUP3 MSTORE PUSH1 0x20 DUP3 ADD SWAP1 POP SWAP3 SWAP2 POP POP JUMP JUMPDEST PUSH0 PUSH2 0x2EE2 DUP3 PUSH2 0x2EBE JUMP JUMPDEST PUSH2 0x2EEC DUP2 DUP6 PUSH2 0x2EC8 JUMP JUMPDEST SWAP4 POP PUSH2 0x2EFC DUP2 DUP6 PUSH1 0x20 DUP7 ADD PUSH2 0x2361 JUMP JUMPDEST PUSH2 0x2F05 DUP2 PUSH2 0x236F JUMP JUMPDEST DUP5 ADD SWAP2 POP POP SWAP3 SWAP2 POP POP JUMP JUMPDEST PUSH0 PUSH1 0x80 DUP3 ADD SWAP1 POP PUSH2 0x2F23 PUSH0 DUP4 ADD DUP8 PUSH2 0x2465 JUMP JUMPDEST PUSH2 0x2F30 PUSH1 0x20 DUP4 ADD DUP7 PUSH2 0x2465 JUMP JUMPDEST PUSH2 0x2F3D PUSH1 0x40 DUP4 ADD DUP6 PUSH2 0x24F5 JUMP JUMPDEST DUP2 DUP2 SUB PUSH1 0x60 DUP4 ADD MSTORE PUSH2 0x2F4F DUP2 DUP5 PUSH2 0x2ED8 JUMP JUMPDEST SWAP1 POP SWAP6 SWAP5 POP POP POP POP POP JUMP JUMPDEST PUSH0 DUP2 MLOAD SWAP1 POP PUSH2 0x2F68 DUP2 PUSH2 0x22BF JUMP JUMPDEST SWAP3 SWAP2 POP POP JUMP JUMPDEST PUSH0 PUSH1 0x20 DUP3 DUP5 SUB SLT ISZERO PUSH2 0x2F83 JUMPI PUSH2 0x2F82 PUSH2 0x228C JUMP JUMPDEST JUMPDEST PUSH0 PUSH2 0x2F90 DUP5 DUP3 DUP6 ADD PUSH2 0x2F5A JUMP JUMPDEST SWAP2 POP POP SWAP3 SWAP2 POP POP JUMP JUMPDEST PUSH0 DUP2 SWAP1 POP SWAP3 SWAP2 POP POP JUMP JUMPDEST PUSH0 PUSH2 0x2FAD DUP3 PUSH2 0x2347 JUMP JUMPDEST PUSH2 0x2FB7 DUP2 DUP6 PUSH2 0x2F99 JUMP JUMPDEST SWAP4 POP PUSH2 0x2FC7 DUP2 DUP6 PUSH1 0x20 DUP7 ADD PUSH2 0x2361 JUMP JUMPDEST DUP1 DUP5 ADD SWAP2 POP POP SWAP3 SWAP2 POP POP JUMP JUMPDEST PUSH0 PUSH2 0x2FDE DUP3 DUP6 PUSH2 0x2FA3 JUMP JUMPDEST SWAP2 POP PUSH2 0x2FEA DUP3 DUP5 PUSH2 0x2FA3 JUMP JUMPDEST SWAP2 POP DUP2 SWAP1 POP SWAP4 SWAP3 POP POP POP JUMP JUMPDEST PUSH32 0x4E487B7100000000000000000000000000000000000000000000000000000000 PUSH0 MSTORE PUSH1 0x12 PUSH1 0x4 MSTORE PUSH1 0x24 PUSH0 REVERT INVALID PUSH9 0x747470733A2F2F7768 PUSH10 0x74652D706563756C6961 PUSH19 0x2D686F6F6B776F726D2D3530372E6D7970696E PUSH2 0x7461 0x2E PUSH4 0x6C6F7564 0x2F PUSH10 0x7066732FA26469706673 PC 0x22 SLT KECCAK256 CALL 0xE8 0xB7 0xC4 SWAP8 TIMESTAMP 0xBD PUSH9 0x8AC0857061D3CAD692 0xBB SWAP7 COINBASE SWAP9 COINBASE 0xBA 0x4D PUSH15 0x1892D852757E3F64736F6C63430008 BYTE STOP CALLER "
		},
		"gasEstimates": {
			"creation": {
				"codeDepositCost": "2486600",
				"executionCost": "infinite",
				"totalCost": "infinite"
			},
			"external": {
				"approve(address,uint256)": "infinite",
				"balanceOf(address)": "infinite",
				"certificates(uint256)": "infinite",
				"completedCourses(address,uint256)": "3204",
				"getApproved(uint256)": "infinite",
				"getCompletedCourses(address)": "infinite",
				"isApprovedForAll(address,address)": "infinite",
				"mintCertificate(uint256,string,string)": "infinite",
				"name()": "infinite",
				"owner()": "2626",
				"ownerOf(uint256)": "infinite",
				"renounceOwnership()": "infinite",
				"safeTransferFrom(address,address,uint256)": "infinite",
				"safeTransferFrom(address,address,uint256,bytes)": "infinite",
				"setApprovalForAll(address,bool)": "infinite",
				"supportsInterface(bytes4)": "1011",
				"symbol()": "infinite",
				"tokenByIndex(uint256)": "infinite",
				"tokenOfOwnerByIndex(address,uint256)": "infinite",
				"tokenURI(uint256)": "infinite",
				"totalSupply()": "2552",
				"transferFrom(address,address,uint256)": "infinite",
				"transferOwnership(address)": "infinite"
			},
			"internal": {
				"_baseURI()": "infinite",
				"_increaseBalance(address,uint128)": "infinite",
				"_update(address,uint256,address)": "infinite"
			}
		},
		"methodIdentifiers": {
			"approve(address,uint256)": "095ea7b3",
			"balanceOf(address)": "70a08231",
			"certificates(uint256)": "663b3e22",
			"completedCourses(address,uint256)": "5b47ce64",
			"getApproved(uint256)": "081812fc",
			"getCompletedCourses(address)": "b856cebd",
			"isApprovedForAll(address,address)": "e985e9c5",
			"mintCertificate(uint256,string,string)": "27994aa4",
			"name()": "06fdde03",
			"owner()": "8da5cb5b",
			"ownerOf(uint256)": "6352211e",
			"renounceOwnership()": "715018a6",
			"safeTransferFrom(address,address,uint256)": "42842e0e",
			"safeTransferFrom(address,address,uint256,bytes)": "b88d4fde",
			"setApprovalForAll(address,bool)": "a22cb465",
			"supportsInterface(bytes4)": "01ffc9a7",
			"symbol()": "95d89b41",
			"tokenByIndex(uint256)": "4f6ccce7",
			"tokenOfOwnerByIndex(address,uint256)": "2f745c59",
			"tokenURI(uint256)": "c87b56dd",
			"totalSupply()": "18160ddd",
			"transferFrom(address,address,uint256)": "23b872dd",
			"transferOwnership(address)": "f2fde38b"
		}
	},
	"abi": [
		{
			"inputs": [
				{
					"internalType": "address",
					"name": "initialOwner",
					"type": "address"
				}
			],
			"stateMutability": "nonpayable",
			"type": "constructor"
		},
		{
			"inputs": [],
			"name": "ERC721EnumerableForbiddenBatchMint",
			"type": "error"
		},
		{
			"inputs": [
				{
					"internalType": "address",
					"name": "sender",
					"type": "address"
				},
				{
					"internalType": "uint256",
					"name": "tokenId",
					"type": "uint256"
				},
				{
					"internalType": "address",
					"name": "owner",
					"type": "address"
				}
			],
			"name": "ERC721IncorrectOwner",
			"type": "error"
		},
		{
			"inputs": [
				{
					"internalType": "address",
					"name": "operator",
					"type": "address"
				},
				{
					"internalType": "uint256",
					"name": "tokenId",
					"type": "uint256"
				}
			],
			"name": "ERC721InsufficientApproval",
			"type": "error"
		},
		{
			"inputs": [
				{
					"internalType": "address",
					"name": "approver",
					"type": "address"
				}
			],
			"name": "ERC721InvalidApprover",
			"type": "error"
		},
		{
			"inputs": [
				{
					"internalType": "address",
					"name": "operator",
					"type": "address"
				}
			],
			"name": "ERC721InvalidOperator",
			"type": "error"
		},
		{
			"inputs": [
				{
					"internalType": "address",
					"name": "owner",
					"type": "address"
				}
			],
			"name": "ERC721InvalidOwner",
			"type": "error"
		},
		{
			"inputs": [
				{
					"internalType": "address",
					"name": "receiver",
					"type": "address"
				}
			],
			"name": "ERC721InvalidReceiver",
			"type": "error"
		},
		{
			"inputs": [
				{
					"internalType": "address",
					"name": "sender",
					"type": "address"
				}
			],
			"name": "ERC721InvalidSender",
			"type": "error"
		},
		{
			"inputs": [
				{
					"internalType": "uint256",
					"name": "tokenId",
					"type": "uint256"
				}
			],
			"name": "ERC721NonexistentToken",
			"type": "error"
		},
		{
			"inputs": [
				{
					"internalType": "address",
					"name": "owner",
					"type": "address"
				},
				{
					"internalType": "uint256",
					"name": "index",
					"type": "uint256"
				}
			],
			"name": "ERC721OutOfBoundsIndex",
			"type": "error"
		},
		{
			"inputs": [
				{
					"internalType": "address",
					"name": "owner",
					"type": "address"
				}
			],
			"name": "OwnableInvalidOwner",
			"type": "error"
		},
		{
			"inputs": [
				{
					"internalType": "address",
					"name": "account",
					"type": "address"
				}
			],
			"name": "OwnableUnauthorizedAccount",
			"type": "error"
		},
		{
			"anonymous": false,
			"inputs": [
				{
					"indexed": true,
					"internalType": "address",
					"name": "owner",
					"type": "address"
				},
				{
					"indexed": true,
					"internalType": "address",
					"name": "approved",
					"type": "address"
				},
				{
					"indexed": true,
					"internalType": "uint256",
					"name": "tokenId",
					"type": "uint256"
				}
			],
			"name": "Approval",
			"type": "event"
		},
		{
			"anonymous": false,
			"inputs": [
				{
					"indexed": true,
					"internalType": "address",
					"name": "owner",
					"type": "address"
				},
				{
					"indexed": true,
					"internalType": "address",
					"name": "operator",
					"type": "address"
				},
				{
					"indexed": false,
					"internalType": "bool",
					"name": "approved",
					"type": "bool"
				}
			],
			"name": "ApprovalForAll",
			"type": "event"
		},
		{
			"anonymous": false,
			"inputs": [
				{
					"indexed": false,
					"internalType": "uint256",
					"name": "_fromTokenId",
					"type": "uint256"
				},
				{
					"indexed": false,
					"internalType": "uint256",
					"name": "_toTokenId",
					"type": "uint256"
				}
			],
			"name": "BatchMetadataUpdate",
			"type": "event"
		},
		{
			"anonymous": false,
			"inputs": [
				{
					"indexed": false,
					"internalType": "uint256",
					"name": "tokenId",
					"type": "uint256"
				},
				{
					"indexed": false,
					"internalType": "address",
					"name": "student",
					"type": "address"
				},
				{
					"indexed": false,
					"internalType": "uint256",
					"name": "courseId",
					"type": "uint256"
				},
				{
					"indexed": false,
					"internalType": "string",
					"name": "courseName",
					"type": "string"
				}
			],
			"name": "CertificateMinted",
			"type": "event"
		},
		{
			"anonymous": false,
			"inputs": [
				{
					"indexed": false,
					"internalType": "uint256",
					"name": "_tokenId",
					"type": "uint256"
				}
			],
			"name": "MetadataUpdate",
			"type": "event"
		},
		{
			"anonymous": false,
			"inputs": [
				{
					"indexed": true,
					"internalType": "address",
					"name": "previousOwner",
					"type": "address"
				},
				{
					"indexed": true,
					"internalType": "address",
					"name": "newOwner",
					"type": "address"
				}
			],
			"name": "OwnershipTransferred",
			"type": "event"
		},
		{
			"anonymous": false,
			"inputs": [
				{
					"indexed": true,
					"internalType": "address",
					"name": "from",
					"type": "address"
				},
				{
					"indexed": true,
					"internalType": "address",
					"name": "to",
					"type": "address"
				},
				{
					"indexed": true,
					"internalType": "uint256",
					"name": "tokenId",
					"type": "uint256"
				}
			],
			"name": "Transfer",
			"type": "event"
		},
		{
			"inputs": [
				{
					"internalType": "address",
					"name": "to",
					"type": "address"
				},
				{
					"internalType": "uint256",
					"name": "tokenId",
					"type": "uint256"
				}
			],
			"name": "approve",
			"outputs": [],
			"stateMutability": "nonpayable",
			"type": "function"
		},
		{
			"inputs": [
				{
					"internalType": "address",
					"name": "owner",
					"type": "address"
				}
			],
			"name": "balanceOf",
			"outputs": [
				{
					"internalType": "uint256",
					"name": "",
					"type": "uint256"
				}
			],
			"stateMutability": "view",
			"type": "function"
		},
		{
			"inputs": [
				{
					"internalType": "uint256",
					"name": "",
					"type": "uint256"
				}
			],
			"name": "certificates",
			"outputs": [
				{
					"internalType": "uint256",
					"name": "courseId",
					"type": "uint256"
				},
				{
					"internalType": "string",
					"name": "courseName",
					"type": "string"
				},
				{
					"internalType": "address",
					"name": "studentAddress",
					"type": "address"
				},
				{
					"internalType": "uint256",
					"name": "completionDate",
					"type": "uint256"
				},
				{
					"internalType": "string",
					"name": "metadata",
					"type": "string"
				}
			],
			"stateMutability": "view",
			"type": "function"
		},
		{
			"inputs": [
				{
					"internalType": "address",
					"name": "",
					"type": "address"
				},
				{
					"internalType": "uint256",
					"name": "",
					"type": "uint256"
				}
			],
			"name": "completedCourses",
			"outputs": [
				{
					"internalType": "bool",
					"name": "",
					"type": "bool"
				}
			],
			"stateMutability": "view",
			"type": "function"
		},
		{
			"inputs": [
				{
					"internalType": "uint256",
					"name": "tokenId",
					"type": "uint256"
				}
			],
			"name": "getApproved",
			"outputs": [
				{
					"internalType": "address",
					"name": "",
					"type": "address"
				}
			],
			"stateMutability": "view",
			"type": "function"
		},
		{
			"inputs": [
				{
					"internalType": "address",
					"name": "student",
					"type": "address"
				}
			],
			"name": "getCompletedCourses",
			"outputs": [
				{
					"internalType": "uint256[]",
					"name": "",
					"type": "uint256[]"
				}
			],
			"stateMutability": "view",
			"type": "function"
		},
		{
			"inputs": [
				{
					"internalType": "address",
					"name": "owner",
					"type": "address"
				},
				{
					"internalType": "address",
					"name": "operator",
					"type": "address"
				}
			],
			"name": "isApprovedForAll",
			"outputs": [
				{
					"internalType": "bool",
					"name": "",
					"type": "bool"
				}
			],
			"stateMutability": "view",
			"type": "function"
		},
		{
			"inputs": [
				{
					"internalType": "uint256",
					"name": "courseId",
					"type": "uint256"
				},
				{
					"internalType": "string",
					"name": "courseName",
					"type": "string"
				},
				{
					"internalType": "string",
					"name": "metadata",
					"type": "string"
				}
			],
			"name": "mintCertificate",
			"outputs": [
				{
					"internalType": "uint256",
					"name": "",
					"type": "uint256"
				}
			],
			"stateMutability": "nonpayable",
			"type": "function"
		},
		{
			"inputs": [],
			"name": "name",
			"outputs": [
				{
					"internalType": "string",
					"name": "",
					"type": "string"
				}
			],
			"stateMutability": "view",
			"type": "function"
		},
		{
			"inputs": [],
			"name": "owner",
			"outputs": [
				{
					"internalType": "address",
					"name": "",
					"type": "address"
				}
			],
			"stateMutability": "view",
			"type": "function"
		},
		{
			"inputs": [
				{
					"internalType": "uint256",
					"name": "tokenId",
					"type": "uint256"
				}
			],
			"name": "ownerOf",
			"outputs": [
				{
					"internalType": "address",
					"name": "",
					"type": "address"
				}
			],
			"stateMutability": "view",
			"type": "function"
		},
		{
			"inputs": [],
			"name": "renounceOwnership",
			"outputs": [],
			"stateMutability": "nonpayable",
			"type": "function"
		},
		{
			"inputs": [
				{
					"internalType": "address",
					"name": "from",
					"type": "address"
				},
				{
					"internalType": "address",
					"name": "to",
					"type": "address"
				},
				{
					"internalType": "uint256",
					"name": "tokenId",
					"type": "uint256"
				}
			],
			"name": "safeTransferFrom",
			"outputs": [],
			"stateMutability": "nonpayable",
			"type": "function"
		},
		{
			"inputs": [
				{
					"internalType": "address",
					"name": "from",
					"type": "address"
				},
				{
					"internalType": "address",
					"name": "to",
					"type": "address"
				},
				{
					"internalType": "uint256",
					"name": "tokenId",
					"type": "uint256"
				},
				{
					"internalType": "bytes",
					"name": "data",
					"type": "bytes"
				}
			],
			"name": "safeTransferFrom",
			"outputs": [],
			"stateMutability": "nonpayable",
			"type": "function"
		},
		{
			"inputs": [
				{
					"internalType": "address",
					"name": "operator",
					"type": "address"
				},
				{
					"internalType": "bool",
					"name": "approved",
					"type": "bool"
				}
			],
			"name": "setApprovalForAll",
			"outputs": [],
			"stateMutability": "nonpayable",
			"type": "function"
		},
		{
			"inputs": [
				{
					"internalType": "bytes4",
					"name": "interfaceId",
					"type": "bytes4"
				}
			],
			"name": "supportsInterface",
			"outputs": [
				{
					"internalType": "bool",
					"name": "",
					"type": "bool"
				}
			],
			"stateMutability": "view",
			"type": "function"
		},
		{
			"inputs": [],
			"name": "symbol",
			"outputs": [
				{
					"internalType": "string",
					"name": "",
					"type": "string"
				}
			],
			"stateMutability": "view",
			"type": "function"
		},
		{
			"inputs": [
				{
					"internalType": "uint256",
					"name": "index",
					"type": "uint256"
				}
			],
			"name": "tokenByIndex",
			"outputs": [
				{
					"internalType": "uint256",
					"name": "",
					"type": "uint256"
				}
			],
			"stateMutability": "view",
			"type": "function"
		},
		{
			"inputs": [
				{
					"internalType": "address",
					"name": "owner",
					"type": "address"
				},
				{
					"internalType": "uint256",
					"name": "index",
					"type": "uint256"
				}
			],
			"name": "tokenOfOwnerByIndex",
			"outputs": [
				{
					"internalType": "uint256",
					"name": "",
					"type": "uint256"
				}
			],
			"stateMutability": "view",
			"type": "function"
		},
		{
			"inputs": [
				{
					"internalType": "uint256",
					"name": "tokenId",
					"type": "uint256"
				}
			],
			"name": "tokenURI",
			"outputs": [
				{
					"internalType": "string",
					"name": "",
					"type": "string"
				}
			],
			"stateMutability": "view",
			"type": "function"
		},
		{
			"inputs": [],
			"name": "totalSupply",
			"outputs": [
				{
					"internalType": "uint256",
					"name": "",
					"type": "uint256"
				}
			],
			"stateMutability": "view",
			"type": "function"
		},
		{
			"inputs": [
				{
					"internalType": "address",
					"name": "from",
					"type": "address"
				},
				{
					"internalType": "address",
					"name": "to",
					"type": "address"
				},
				{
					"internalType": "uint256",
					"name": "tokenId",
					"type": "uint256"
				}
			],
			"name": "transferFrom",
			"outputs": [],
			"stateMutability": "nonpayable",
			"type": "function"
		},
		{
			"inputs": [
				{
					"internalType": "address",
					"name": "newOwner",
					"type": "address"
				}
			],
			"name": "transferOwnership",
			"outputs": [],
			"stateMutability": "nonpayable",
			"type": "function"
		}
	]
}